:100000000C942A000C9447000C9447000C94470071
:100010000C9447000C9447000C9447000C94470044
:100020000C9447000C9447000C9447000C94470034
:100030000C9447000C9447000C9447000C94470024
:100040000C9447000C9447000C9447000C94470014
:100050000C94470011241FBECFE5D8E0DEBFCDBF12
:1000600010E0A0E6B0E0E2E9F0E102C005900D92F8
:10007000A23BB107D9F710E0A2EBB0E001C01D929E
:10008000A63CB107E1F70E9413080C9447080C94B2
:1000900000000F931F93DF93CF9300D000D0CDB714
:1000A000DEB79A838983ABE2B0E0EBE2F0E08081D7
:1000B000282F2D7FE981FA818481882F90E0880F95
:1000C000991F822B8C93E981FA8185818730A1F475
:1000D000AAE2B0E0EAE2F0E08081982F9B7FE9811C
:1000E000FA8185818470892B8C93AAE2B0E0EAE2E0
:1000F000F0E0808183608C93AAE2B0E0EAE2F0E075
:10010000808188618C93A0E4B0E0E0E4F0E080813D
:1001100080688C93A0E4B0E0E0E4F0E08081282FD8
:10012000297FE981FA818581882F90E08370907022
:10013000880F991F822B8C93A0E4B0E0E0E4F0E0FC
:100140008081282F2F7CE981FA818681882F90E099
:1001500082959295907F9827807F9827822B8C9309
:10016000A0E4B0E0E0E4F0E08081282F277FE9817F
:10017000FA818781882F90E0880F991F880F991F37
:10018000880F991F822B8C93E981FA818481282F13
:1001900030E03C832B838B819C81009739F0EB818D
:1001A000FC81E130F10509F456C0A1C000E410E083
:1001B000E981FA8180819181A281B381880F991FA1
:1001C000AA1FBB1F880F991FAA1FBB1F880F991F4B
:1001D000AA1FBB1F880F991FAA1FBB1F9C01AD013F
:1001E00080E092E1AAE7B0E0BC01CD010E941C08CA
:1001F000DA01C9010197A109B109892F9A2FAB2F03
:10020000BB27F801808309E210E0E981FA8180814F
:100210009181A281B381880F991FAA1FBB1F880FEC
:10022000991FAA1FBB1F880F991FAA1FBB1F880FEA
:10023000991FAA1FBB1F9C01AD0180E092E1AAE7B4
:10024000B0E0BC01CD010E941C08DA01C901815057
:10025000F80180834CC000E410E0E981FA818081DC
:100260009181A281B381880F991FAA1FBB1F880F9C
:10027000991FAA1FBB1F880F991FAA1FBB1F9C0194
:10028000AD0180E092E1AAE7B0E0BC01CD010E949F
:100290001C08DA01C9010197A109B109892F9A2F18
:1002A000AB2FBB27F801808309E210E0E981FA81D6
:1002B00080819181A281B381880F991FAA1FBB1FE2
:1002C000880F991FAA1FBB1F880F991FAA1FBB1F4A
:1002D0009C01AD0180E092E1AAE7B0E0BC01CD0154
:1002E0000E941C08DA01C9018150F80180830F9037
:1002F0000F900F900F90CF91DF911F910F91089564
:10030000DF93CF930F92CDB7DEB78983EBE2F0E0B6
:100310008081882F90E0807290700097B9F3ECE2B2
:10032000F0E0898180830F90CF91DF910895DF9372
:10033000CF93CDB7DEB7EBE2F0E080818823DCF726
:10034000ECE2F0E08081CF91DF910895DF93CF93CD
:1003500000D00F92CDB7DEB79B838A8319820EC07F
:100360008981282F30E08A819B81FC01E20FF31FF5
:1003700080810E94800189818F5F89838981282FF4
:1003800030E08A819B81FC01E20FF31F808188238A
:1003900039F70F900F900F90CF91DF9108950F9341
:1003A0001F93DF93CF9300D00F92CDB7DEB79B831F
:1003B0008A8319828981282F30E08A819B818C0170
:1003C000020F131F0E949701F80180830FC08981DB
:1003D0008F5F89838981282F30E08A819B818C01FE
:1003E000020F131F0E949701F80180838981282F33
:1003F00030E08A819B81FC01E20FF31F80818D3008
:1004000031F78981282F30E08A819B81FC01E20F3E
:10041000F31F10820F900F900F90CF91DF911F91DB
:100420000F910895DF93CF930F92CDB7DEB78983F5
:10043000A0E4B0E0E0E4F0E08081282F2F7C898107
:10044000882F90E082959295907F9827807F9827BB
:10045000822B8C930F90CF91DF910895DF93CF93F0
:100460000F92CDB7DEB78983A0E4B0E0E0E4F0E01E
:100470008081282F277F8981882F90E0880F991FFE
:10048000880F991F880F991F822B8C930F90CF9103
:10049000DF910895DF93CF93CDB7DEB7EBE2F0E0C5
:1004A00080E28083EAE2F0E01082E0E4F0E086E8B7
:1004B0008083E0E4F0E01082E9E2F0E01082CF9186
:1004C000DF910895DF93CF93CDB7DEB727970FB6AF
:1004D000F894DEBF0FBECDBF8A836B8381E0898332
:1004E0008B818130D1F58A81282F30E03F832E83A4
:1004F0008E819F8181309105D9F02E813F812230FC
:1005000031052CF48E819F81009761F023C02E81EC
:100510003F812230310591F08E819F81833091059A
:1005200099F018C0EAE3F0E08FEF8083198250C0A1
:10053000E7E3F0E08FEF808319824AC0E4E3F0E064
:100540008FEF8083198244C0E1E3F0E08FEF808376
:1005500019823EC081E089833BC08B818823B1F53D
:100560008A81282F30E03D832C838C819D818130CE
:100570009105D1F02C813D81223031052CF48C8104
:100580009D81009761F01FC02C813D812230310593
:1005900081F08C819D818330910581F014C0EAE364
:1005A000F0E01082198214C0E7E3F0E010821982B3
:1005B0000FC0E4E3F0E0108219820AC0E1E3F0E04A
:1005C0001082198205C081E0898302C084E089839A
:1005D000898127960FB6F894DEBF0FBECDBFCF91AD
:1005E000DF910895DF93CF93CDB7DEB728970FB68D
:1005F000F894DEBF0FBECDBF8A836B834C8381E04E
:1006000089838B81883008F0FDC08C81813009F0AE
:1006100077C08A81282F30E038872F838F81988593
:100620008130910559F12F813885223031052CF424
:100630008F819885009769F060C02F8138852230BE
:10064000310589F18F8198858330910509F440C087
:1006500054C0AAE3B0E0EAE3F0E08081482F8B8148
:10066000282F30E081E090E0022E02C0880F991F11
:100670000A94E2F7842B8C931982C6C0A7E3B0E0FA
:10068000E7E3F0E08081482F8B81282F30E081E084
:1006900090E0022E02C0880F991F0A94E2F7842B83
:1006A0008C931982B1C0A4E3B0E0E4E3F0E0808170
:1006B000482F8B81282F30E081E090E0022E02C08D
:1006C000880F991F0A94E2F7842B8C9319829CC09F
:1006D000A1E3B0E0E1E3F0E08081482F8B81282F97
:1006E00030E081E090E0022E02C0880F991F0A944A
:1006F000E2F7842B8C93198287C081E0898384C0C0
:100700008C81882309F07BC08A81282F30E03E83CA
:100710002D838D819E818130910561F12D813E81F6
:10072000223031052CF48D819E81009769F064C0E0
:100730002D813E812230310599F18D819E8183305A
:10074000910509F443C058C0AAE3B0E0EAE3F0E041
:100750008081482F8B81282F30E081E090E0022EAD
:1007600002C0880F991F0A94E2F7809584238C9326
:1007700019824AC0A7E3B0E0E7E3F0E08081482FA8
:100780008B81282F30E081E090E0022E02C0880F9C
:10079000991F0A94E2F7809584238C93198234C0C0
:1007A000A4E3B0E0E4E3F0E08081482F8B81282FC0
:1007B00030E081E090E0022E02C0880F991F0A9479
:1007C000E2F7809584238C9319821EC0A1E3B0E0E8
:1007D000E1E3F0E08081482F8B81282F30E081E039
:1007E00090E0022E02C0880F991F0A94E2F78095CC
:1007F00084238C93198208C081E0898305C084E03A
:10080000898302C082E08983898128960FB6F89493
:10081000DEBF0FBECDBFCF91DF910895DF93CF93A1
:1008200000D000D00F92CDB7DEB78A836B8381E012
:1008300089838A81282F30E03D832C838C819D81A0
:1008400081309105D9F02C813D81223031052CF485
:100850008C819D81009761F023C02C813D812230E5
:10086000310591F08C819D818330910599F018C0FC
:10087000EBE3F0E08B818083198214C0E8E3F0E0C1
:100880008B81808319820EC0E5E3F0E08B81808349
:10089000198208C0E2E3F0E08B818083198202C0F4
:1008A00081E0898389810F900F900F900F900F90B6
:1008B000CF91DF910895DF93CF93CDB7DEB728971F
:1008C0000FB6F894DEBF0FBECDBF8A836B834C8317
:1008D00081E089838B81883008F0FDC08C81813074
:1008E00009F077C08A81282F30E038872F838F81E5
:1008F00098858130910559F12F8138852230310555
:100900002CF48F819885009769F060C02F8138851D
:100910002230310589F18F8198858330910509F462
:1009200040C054C0ABE3B0E0EBE3F0E08081482F7F
:100930008B81282F30E081E090E0022E02C0880FEA
:10094000991F0A94E2F7842B8C931982C6C0A8E3FE
:10095000B0E0E8E3F0E08081482F8B81282F30E081
:1009600081E090E0022E02C0880F991F0A94E2F7FE
:10097000842B8C931982B1C0A5E3B0E0E5E3F0E0ED
:100980008081482F8B81282F30E081E090E0022E7B
:1009900002C0880F991F0A94E2F7842B8C93198266
:1009A0009CC0A2E3B0E0E2E3F0E08081482F8B81BD
:1009B000282F30E081E090E0022E02C0880F991FBE
:1009C0000A94E2F7842B8C93198287C081E0898393
:1009D00084C08C81882309F07BC08A81282F30E075
:1009E0003E832D838D819E818130910561F12D8122
:1009F0003E81223031052CF48D819E81009769F073
:100A000064C02D813E812230310599F18D819E8116
:100A10008330910509F443C058C0ABE3B0E0EBE389
:100A2000F0E08081482F8B81282F30E081E090E03A
:100A3000022E02C0880F991F0A94E2F78095842342
:100A40008C9319824AC0A8E3B0E0E8E3F0E080812B
:100A5000482F8B81282F30E081E090E0022E02C0E9
:100A6000880F991F0A94E2F7809584238C9319824A
:100A700034C0A5E3B0E0E5E3F0E08081482F8B814E
:100A8000282F30E081E090E0022E02C0880F991FED
:100A90000A94E2F7809584238C9319821EC0A2E306
:100AA000B0E0E2E3F0E08081482F8B81282F30E036
:100AB00081E090E0022E02C0880F991F0A94E2F7AD
:100AC000809584238C93198208C081E0898305C0B6
:100AD00084E0898302C082E08983898128960FB6E9
:100AE000F894DEBF0FBECDBFCF91DF910895DF93A5
:100AF000CF9300D000D000D0CDB7DEB78A837C83FF
:100B00006B8381E089838B819C81009719F485E058
:100B1000898341C08A81282F30E03E832D838D81D7
:100B20009E8181309105E9F02D813E812230310591
:100B30002CF48D819E81009761F02BC02D813E8128
:100B400022303105B1F08D819E8183309105C9F04D
:100B500020C0E9E3F0E08081EB81FC818083198291
:100B60001AC0E6E3F0E08081EB81FC81808319828A
:100B700012C0E3E3F0E08081EB81FC818083198285
:100B80000AC0E0E3F0E08081EB81FC818083198280
:100B900002C081E08983898126960FB6F894DEBF72
:100BA0000FBECDBFCF91DF910895DF93CF93CDB727
:100BB000DEB727970FB6F894DEBF0FBECDBF8A838E
:100BC0006B835D834C8381E089838C819D81009759
:100BD00019F485E08983AFC08B81883008F0A9C003
:100BE0008A81282F30E03F832E834E815F81413000
:100BF0005105C9F18E819F818230910534F42E8197
:100C00003F812115310571F091C04E815F814230E5
:100C1000510509F449C08E819F818330910509F403
:100C200064C084C0E9E3F0E08081482F50E08B810C
:100C3000282F30E081E090E002C0880F991F2A95AC
:100C4000E2F79A01282339238B81882F90E0A901AC
:100C500002C0559547958A95E2F7CA01EC81FD815E
:100C60008083198268C0E6E3F0E08081482F50E07D
:100C70008B81282F30E081E090E002C0880F991F1F
:100C80002A95E2F79A01282339238B81882F90E057
:100C9000A90102C0559547958A95E2F7CA01EC81F2
:100CA000FD818083198247C0E3E3F0E08081482F13
:100CB00050E08B81282F30E081E090E002C0880F67
:100CC000991F2A95E2F79A01282339238B81882FCF
:100CD00090E0A90102C0559547958A95E2F7CA01AF
:100CE000EC81FD818083198226C0E0E3F0E0808101
:100CF000482F50E08B81282F30E081E090E002C047
:100D0000880F991F2A95E2F79A01282339238B81AE
:100D1000882F90E0A90102C0559547958A95E2F782
:100D2000CA01EC81FD818083198205C081E089833D
:100D300002C082E08983898127960FB6F894DEBFCE
:100D40000FBECDBFCF91DF910895DF93CF9300D039
:100D500000D00F92CDB7DEB78A836B8381E08983A1
:100D60008B81883008F077C08A81282F30E03D835E
:100D70002C838C819D818130910559F12C813D819D
:100D8000223031052CF48C819D81009769F060C080
:100D90002C813D812230310589F18C819D81833008
:100DA000910509F440C054C0ABE3B0E0EBE3F0E0E0
:100DB0008081482F8B81282F30E081E090E0022E47
:100DC00002C0880F991F0A94E2F784278C93198236
:100DD00044C0A8E3B0E0E8E3F0E08081482F8B81D5
:100DE000282F30E081E090E0022E02C0880F991F8A
:100DF0000A94E2F784278C9319822FC0A5E3B0E010
:100E0000E5E3F0E08081482F8B81282F30E081E0FE
:100E100090E0022E02C0880F991F0A94E2F78427FF
:100E20008C9319821AC0A2E3B0E0E2E3F0E0808183
:100E3000482F8B81282F30E081E090E0022E02C005
:100E4000880F991F0A94E2F784278C93198205C0B2
:100E500081E0898302C082E0898389810F900F90AD
:100E60000F900F900F90CF91DF910895DF93CF9364
:100E70000F92CDB7DEB719820DC081E0698141E0E4
:100E80000E94F20281E0698140E00E945B04898156
:100E90008F5F89838981853080F30F90CF91DF91B7
:100EA0000895DF93CF930F92CDB7DEB7898381E0AA
:100EB000698141E00E945B040F90CF91DF9108951A
:100EC000DF93CF930F92CDB7DEB7898381E069813D
:100ED00040E00E945B040F90CF91DF910895DF9373
:100EE000CF930F92CDB7DEB7898381E069810E94ED
:100EF000A5060F90CF91DF910895DF93CF93CDB7E3
:100F0000DEB72D970FB6F894DEBF0FBECDBF0E949F
:100F10003607CE0101969A878987E9EAF0E0FC87D7
:100F2000EB87F8E0FD87EB85FC8500808B859C8551
:100F300001969C878B87E985FA85008289859A8549
:100F400001969A8789879D8591509D87ED85EE232F
:100F500051F7CE0101960E9449002D960FB6F894E4
:100F6000DEBF0FBECDBFCF91DF910895DF93CF934A
:100F7000CDB7DEB782EB90E00E94CF0182EB90E02C
:100F800020E630E0B9010E943E08009771F480E04D
:100F90000E94510781E00E94600782E00E94600782
:100FA00086E690E00E94A6013BC082EB90E027E736
:100FB00030E0B9010E943E08009771F481E00E9480
:100FC000510780E00E94600782E00E9460078CE782
:100FD00090E00E94A60124C082EB90E02EE830E071
:100FE000B9010E943E08009771F482E00E94510707
:100FF00081E00E94600780E00E94600783E990E042
:101000000E94A6010DC082EB90E022EA30E0B90117
:101010000E943E08009721F485EA90E00E94A60114
:10102000CF91DF910895DF93CF93CDB7DEB70E94C4
:101030007D070E94B607FDCFA1E21A2EAA1BBB1B9B
:10104000FD010DC0AA1FBB1FEE1FFF1FA217B30794
:10105000E407F50720F0A21BB30BE40BF50B661FAA
:10106000771F881F991F1A9469F76095709580956E
:1010700090959B01AC01BD01CF010895FB01DC01FE
:101080008D91019080190110D9F3990B0895F8946E
:02109000FFCF90
:10109200535441525400477265656E204C454420BA
:1010A2006973206F6E0D00574149540059656C6C8D
:1010B2006F77204C4544206973206F6E0D005354A6
:1010C2004F5000526564204C4544206973206F6E76
:1010D2000D004154004F4B0D00802500000003001D
:0210E20000000C
:00000001FF
