:100000000C942A000C9447000C9447000C94470071
:100010000C9447000C9447000C9447000C94470044
:100020000C9447000C9447000C9447000C94470034
:100030000C9447000C9447000C9447000C94470024
:100040000C9447000C9447000C9447000C94470014
:100050000C94470011241FBECFE5D8E0DEBFCDBF12
:1000600010E0A0E6B0E0E0EBF5E002C005900D92F4
:10007000A836B107D9F710E0A8E6B0E001C01D929C
:10008000AC37B107E1F70E94AB020C94D6020C9496
:1000900000000F931F93DF93CF9300D000D0CDB714
:1000A000DEB79A838983ABE2B0E0EBE2F0E08081D7
:1000B000282F2D7FE981FA818481882F90E0880F95
:1000C000991F822B8C93E981FA8185818730A1F475
:1000D000AAE2B0E0EAE2F0E08081982F9B7FE9811C
:1000E000FA8185818470892B8C93AAE2B0E0EAE2E0
:1000F000F0E0808183608C93AAE2B0E0EAE2F0E075
:10010000808188618C93A0E4B0E0E0E4F0E080813D
:1001100080688C93A0E4B0E0E0E4F0E08081282FD8
:10012000297FE981FA818581882F90E08370907022
:10013000880F991F822B8C93A0E4B0E0E0E4F0E0FC
:100140008081282F2F7CE981FA818681882F90E099
:1001500082959295907F9827807F9827822B8C9309
:10016000A0E4B0E0E0E4F0E08081282F277FE9817F
:10017000FA818781882F90E0880F991F880F991F37
:10018000880F991F822B8C93E981FA818481282F13
:1001900030E03C832B838B819C81009739F0EB818D
:1001A000FC81E130F10509F456C0A1C000E410E083
:1001B000E981FA8180819181A281B381880F991FA1
:1001C000AA1FBB1F880F991FAA1FBB1F880F991F4B
:1001D000AA1FBB1F880F991FAA1FBB1F9C01AD013F
:1001E00080E092E1AAE7B0E0BC01CD010E94B40238
:1001F000DA01C9010197A109B109892F9A2FAB2F03
:10020000BB27F801808309E210E0E981FA8180814F
:100210009181A281B381880F991FAA1FBB1F880FEC
:10022000991FAA1FBB1F880F991FAA1FBB1F880FEA
:10023000991FAA1FBB1F9C01AD0180E092E1AAE7B4
:10024000B0E0BC01CD010E94B402DA01C9018150C5
:10025000F80180834CC000E410E0E981FA818081DC
:100260009181A281B381880F991FAA1FBB1F880F9C
:10027000991FAA1FBB1F880F991FAA1FBB1F9C0194
:10028000AD0180E092E1AAE7B0E0BC01CD010E949F
:10029000B402DA01C9010197A109B109892F9A2F86
:1002A000AB2FBB27F801808309E210E0E981FA81D6
:1002B00080819181A281B381880F991FAA1FBB1FE2
:1002C000880F991FAA1FBB1F880F991FAA1FBB1F4A
:1002D0009C01AD0180E092E1AAE7B0E0BC01CD0154
:1002E0000E94B402DA01C9018150F80180830F90A5
:1002F0000F900F900F90CF91DF911F910F91089564
:10030000DF93CF930F92CDB7DEB78983EBE2F0E0B6
:100310008081882F90E0807290700097B9F3ECE2B2
:10032000F0E0898180830F90CF91DF910895DF9372
:10033000CF93CDB7DEB7EBE2F0E080818823DCF726
:10034000ECE2F0E08081CF91DF910895DF93CF93CD
:1003500000D00F92CDB7DEB79B838A8319820EC07F
:100360008981282F30E08A819B81FC01E20FF31FF5
:1003700080810E94800189818F5F89838981282FF4
:1003800030E08A819B81FC01E20FF31F808188238A
:1003900039F70F900F900F90CF91DF9108950F9341
:1003A0001F93DF93CF9300D00F92CDB7DEB79B831F
:1003B0008A8319828981282F30E08A819B818C0170
:1003C000020F131F0E949701F80180830FC08981DB
:1003D0008F5F89838981282F30E08A819B818C01FE
:1003E000020F131F0E949701F80180838981282F33
:1003F00030E08A819B81FC01E20FF31F80818D3008
:1004000031F78981282F30E08A819B81FC01E20F3E
:10041000F31F10820F900F900F90CF91DF911F91DB
:100420000F910895DF93CF930F92CDB7DEB78983F5
:10043000A0E4B0E0E0E4F0E08081282F2F7C898107
:10044000882F90E082959295907F9827807F9827BB
:10045000822B8C930F90CF91DF910895DF93CF93F0
:100460000F92CDB7DEB78983A0E4B0E0E0E4F0E01E
:100470008081282F277F8981882F90E0880F991FFE
:10048000880F991F880F991F822B8C930F90CF9103
:10049000DF910895DF93CF93CDB7DEB7EBE2F0E0C5
:1004A00080E28083EAE2F0E01082E0E4F0E086E8B7
:1004B0008083E0E4F0E01082E9E2F0E01082CF9186
:1004C000DF910895DF93CF93CDB7DEB72D970FB6A9
:1004D000F894DEBF0FBECDBFCE0101969A87898703
:1004E000E0E6F0E0FC87EB87F8E0FD87EB85FC8534
:1004F00000808B859C8501969C878B87E985FA8592
:10050000008289859A8501969A8789879D85915071
:100510009D87ED85EE2351F7CE0101960E9449009B
:100520002D960FB6F894DEBF0FBECDBFCF91DF91F1
:100530000895DF93CF93CDB7DEB788E690E00E94B1
:10054000CF0188E690E00E94A6018DE00E94800124
:10055000CF91DF910895DF93CF93CDB7DEB70E949F
:1005600062020E949902FDCFA1E21A2EAA1BBB1BB8
:10057000FD010DC0AA1FBB1FEE1FFF1FA217B3076F
:10058000E407F50720F0A21BB30BE40BF50B661F85
:10059000771F881F991F1A9469F760957095809549
:1005A00090959B01AC01BD01CF010895F894FFCF58
:0805B00080250000000300009B
:00000001FF
