:100000000C942A000C9447000C9447000C94470071
:100010000C9447000C9447000C9447000C94470044
:100020000C9447000C9447000C9447000C94470034
:100030000C9447000C9447000C9447000C94470024
:100040000C9447000C9447000C9447000C94470014
:100050000C94470011241FBECFE5D8E0DEBFCDBF12
:1000600010E0A0E6B0E0E6EBF2E302C005900D92EE
:10007000A23AB107D9F710E0A2EAB0E001C01D92A0
:10008000A83BB107E1F70E9483180C9459190C940E
:100090000000EF92FF920F931F937B018C0120E0F1
:1000A00030E040E05FE40E94490388238CF0C801FF
:1000B000B70120E030E040E05FE40E94C1010E940F
:1000C000A9039B01AC01205030404040504806C07D
:1000D000C801B7010E94A9039B01AC01B901CA0183
:1000E0001F910F91FF90EF900895A0E0B0E0EBE733
:1000F000F0E00C94C218DC012B01FA019C919230C3
:1001000008F439C1EB018881823008F433C194309E
:1001100069F4843009F02FC111969C91119789815F
:10012000981709F428C1ACE8B0E025C1843009F47F
:1001300021C18230A9F4923009F01DC19A01AD01AC
:1001400088E0EA010990AE01E90109929E0181501F
:10015000C1F7E201898111969C918923818308C1AD
:10016000923009F407C112962D903C901397EB0141
:100170008A819B811496AD90BD90CD90DC901797AD
:10018000EC80FD800E811F819101281B390BB90184
:1001900037FF04C066277727621B730B6032710537
:1001A0000CF061C0121613066CF537014801062EDB
:1001B00004C096948794779467940A94D2F721E0C8
:1001C00030E040E050E004C0220F331F441F551FB1
:1001D0006A95D2F721503040404050402E213F21B7
:1001E00040235123211531054105510521F021E01E
:1001F00030E040E050E079018A01E628F72808293C
:1002000019293CC0232BD1F1260E371E350146019A
:10021000062E04C096948794779467940A94D2F734
:1002200021E030E040E050E004C0220F331F441FC3
:10023000551F6A95D2F721503040404050402A2146
:100240003B214C215D21211531054105510521F04E
:1002500021E030E040E050E059016A01A628B728CB
:10026000C828D9280BC0821593052CF01C01AA249C
:10027000BB24650103C0EE24FF24870111969C91E5
:10028000D20111968C91981709F445C0992339F041
:10029000A80197012A193B094C095D0906C0A6016E
:1002A00095012E193F09400B510B57FD08C01182D3
:1002B0003382228224833583468357831DC081E0A5
:1002C00081833382228288279927DC01821B930B4A
:1002D000A40BB50B84839583A683B7830DC0220F2F
:1002E000331F441F551F24833583468357838281E0
:1002F000938101979383828324813581468157813D
:10030000DA01C9010197A109B1098F5F9F4FAF4F72
:10031000BF4328F30BC0918333822282EA0CFB1C7B
:100320000C1D1D1DE482F5820683178383E0808304
:10033000248135814681578157FF1AC0C901AA27F8
:1003400097FDA095BA2F81709070A070B0705695EF
:10035000479537952795822B932BA42BB52B848318
:100360009583A683B7838281938101969383828349
:10037000DF0101C0D201CD01CDB7DEB7E2E10C94BF
:10038000DE18A0E2B0E0E7ECF1E00C94CE1869834F
:100390007A838B839C832D833E834F835887E9E048
:1003A000EE2EF12CEC0EFD1ECE010196B7010E943F
:1003B000D2048E010F5E1F4FCE010596B8010E9438
:1003C000D2048A8991E089278A8BC701B801AE01DE
:1003D000475E5F4F0E9475000E94FD03A096E6E015
:1003E0000C94EA18A0E2B0E0E8EFF1E00C94CE182B
:1003F00069837A838B839C832D833E834F835887C5
:10040000F9E0EF2EF12CEC0EFD1ECE010196B701A6
:100410000E94D2048E010F5E1F4FCE010596B801D7
:100420000E94D204C701B801AE01475E5F4F0E942F
:1004300075000E94FD03A096E6E00C94EA18A0E285
:10044000B0E0E5E2F2E00C94C21869837A838B8312
:100450009C832D833E834F835887CE010196BE0136
:10046000675F7F4F0E94D204CE010596BE016F5E8A
:100470007F4F0E94D2049985923088F0898982301A
:10048000C8F0943019F4823051F404C0843029F457
:10049000923081F48CE890E0C6C0923049F420E0BC
:1004A0009A858A89981321E02A87CE010996BBC0D4
:1004B000823049F420E09A858A89981321E02A8BBA
:1004C000CE014196B0C02D843E844F8458886D88FB
:1004D0007E888F88988CEE24FF248701AA24BB2471
:1004E000650140E050E060E070E0E0E0F0E0C10174
:1004F00081709070892BE9F0E60CF71C081D191D1E
:100500009A01AB012A0D3B1D4C1D5D1D80E090E062
:10051000A0E0B0E0E614F7040805190520F481E036
:1005200090E0A0E0B0E0BA01A901480F591F6A1F8E
:100530007B1FAA0CBB1CCC1CDD1C97FE08C081E0F5
:1005400090E0A0E0B0E0A82AB92ACA2ADB2A3196B6
:10055000E032F10549F0660C771C881C991C569412
:10056000479437942794C3CFFA85EA892B893C892D
:100570008B859C85280F391F2E5F3F4F17C0CA01FE
:1005800081709070892B61F016950795F794E79428
:1005900080E090E0A0E0B0E8E82AF92A0A2B1B2BC3
:1005A00076956795579547952F5F3F4F77FDE7CF36
:1005B0000CC0440F551F661F771F17FD4160EE0CDE
:1005C000FF1C001F111F21503040403090E05907A0
:1005D00090E0690790E4790760F32B8F3C8FDB0193
:1005E000CA018F779070A070B07080349105A1051A
:1005F000B10561F447FD0AC0E114F10401051105DC
:1006000029F0405C5F4F6F4F7F4F40781A8EFE1786
:1006100011F081E08A8F4D8F5E8F6F8F78A383E01A
:10062000898FCE0149960E94FD03A096E2E10C94C9
:10063000DE18A8E1B0E0EFE1F3E00C94CE18698396
:100640007A838B839C832D833E834F83588789E0F5
:10065000E82EF12CEC0EFD1ECE010196B7010E9492
:10066000D2048E010F5E1F4FCE010596B8010E9485
:10067000D2048985823040F08989823028F0C70110
:10068000B8010E944A0501C08FEF6896E6E00C941D
:10069000EA18A8E1B0E0EFE4F3E00C94CE18698327
:1006A0007A838B839C832D833E834F83588789E095
:1006B000E82EF12CEC0EFD1ECE010196B7010E9432
:1006C000D2048E010F5E1F4FCE010596B8010E9425
:1006D000D2048985823040F08989823028F0C701B0
:1006E000B8010E944A0501C08FEF6896E6E00C94BD
:1006F000EA18A8E1B0E0EFE7F3E00C94CE186983C4
:100700007A838B839C832D833E834F83588789E034
:10071000E82EF12CEC0EFD1ECE010196B7010E94D1
:10072000D2048E010F5E1F4FCE010596B8010E94C4
:10073000D2048985823040F08989823028F0C7014F
:10074000B8010E944A0501C081E06896E6E00C9479
:10075000EA18ACE0B0E0EFEAF3E00C94D218698359
:100760007A838B839C83CE010196BE016B5F7F4FA2
:100770000E94D2048D81823061F1823050F1843048
:1007800021F48E81882351F12EC02F81388537FDC9
:1007900020C06E812F3131051CF06623F9F023C093
:1007A0008EE190E0821B930B29853A854B855C8511
:1007B00004C056954795379527958A95D2F76623B5
:1007C000B1F050954095309521953F4F4F4F5F4F79
:1007D0000EC020E030E040E050E009C02FEF3FEFD6
:1007E0004FEF5FE704C020E030E040E050E8B9019F
:1007F000CA012C96E2E00C94EE18DF92EF92FF9281
:100800000F931F93FC01E480F58006811781D1804E
:100810008081823048F480E090E0A0E1B0E0E82AF6
:10082000F92A0A2B1B2BA5C0843009F49FC0823003
:1008300021F4EE24FF24870105C0E114F104010531
:10084000110519F4E0E0F0E096C0628173819FEF3A
:10085000623879070CF05BC022E83FEF261B370BAC
:100860002A3131052CF020E030E040E050E02AC091
:10087000B801A701022E04C0769567955795479554
:100880000A94D2F781E090E0A0E0B0E004C0880FC5
:10089000991FAA1FBB1F2A95D2F70197A109B10979
:1008A0008E219F21A023B1230097A105B10521F03E
:1008B00081E090E0A0E0B0E09A01AB01282B392B59
:1008C0004A2B5B2BDA01C9018F779070A070B07052
:1008D00080349105A105B10539F427FF09C0205CDA
:1008E0003F4F4F4F5F4F04C0215C3F4F4F4F5F4F13
:1008F000E0E0F0E02030A0E03A07A0E04A07A0E402
:100900005A0710F0E1E0F0E079018A0127C0603871
:10091000710564F5FB01E158FF4FD801C7018F77DE
:100920009070A070B07080349105A105B10539F4C4
:10093000E7FE0DC080E490E0A0E0B0E004C08FE3EB
:1009400090E0A0E0B0E0E80EF91E0A1F1B1F17FFA1
:1009500005C016950795F794E794319687E01695AC
:100960000795F794E7948A95D1F705C0EE24FF2404
:100970008701EFEFF0E06E2F679566276795902F60
:100980009F77D794DD24D7948E2F8695492F462BB9
:10099000582F5D29B701CA011F910F91FF90EF9069
:1009A000DF900895FC01DB01408151812281622F9B
:1009B0006F7770E0221F2227221F9381892F880FD3
:1009C000822B282F30E0991F9927991F11969C930D
:1009D000119721153105A9F54115510561057105DD
:1009E00011F482E037C082E89FEF13969C938E93B8
:1009F00012979A01AB0167E0220F331F441F551F66
:100A00006A95D1F783E08C930DC0220F331F441FEA
:100A1000551F12968D919C911397019713969C9355
:100A20008E931297203080E0380780E0480780E4FA
:100A3000580758F314962D933D934D935C93179755
:100A400008952F3F310579F4411551056105710570
:100A500019F484E08C93089564FF03C081E08C93C3
:100A600012C01C9210C02F57304013963C932E9307
:100A7000129783E08C9387E0440F551F661F771F02
:100A80008A95D1F7706414964D935D936D937C9322
:100A9000179708951F93DC01FB019C91923008F495
:100AA00047C08081823008F443C0943051F41196DD
:100AB0001C91843099F58181682F70E0611B710968
:100AC0003FC0843021F0923031F48230B9F181811D
:100AD000882389F12DC011961C9111978230F1F075
:100AE00081811817D9F412962D913C911397828128
:100AF00093818217930794F028173907BCF0149656
:100B00008D919D910D90BC91A02D248135814681C0
:100B10005781281739074A075B0718F4112341F05A
:100B20000AC082179307A407B50740F4112319F0F0
:100B300061E070E005C06FEF7FEF02C060E070E041
:100B4000CB011F9108950F931F93DF93CF9300D094
:100B500000D0CDB7DEB79A838983ABE2B0E0EBE299
:100B6000F0E08081282F2D7FE981FA818481882F10
:100B700090E0880F991F822B8C93E981FA818581FF
:100B80008730A1F4AAE2B0E0EAE2F0E08081982F99
:100B90009B7FE981FA8185818470892B8C93AAE2FD
:100BA000B0E0EAE2F0E0808183608C93AAE2B0E0FA
:100BB000EAE2F0E0808188618C93A0E4B0E0E0E4B8
:100BC000F0E0808180688C93A0E4B0E0E0E4F0E0A5
:100BD0008081282F297FE981FA818581882F90E003
:100BE00083709070880F991F822B8C93A0E4B0E0E3
:100BF000E0E4F0E08081282F2F7CE981FA81868172
:100C0000882F90E082959295907F9827807F9827F3
:100C1000822B8C93A0E4B0E0E0E4F0E08081282F08
:100C2000277FE981FA818781882F90E0880F991FBB
:100C3000880F991F880F991F822B8C93E981FA8165
:100C40008481282F30E03C832B838B819C8100970B
:100C500039F0EB81FC81E130F10509F456C0A1C007
:100C600000E410E0E981FA8180819181A281B38161
:100C7000880F991FAA1FBB1F880F991FAA1FBB1F90
:100C8000880F991FAA1FBB1F880F991FAA1FBB1F80
:100C90009C01AD0180E092E1AAE7B0E0BC01CD018A
:100CA0000E94A018DA01C9010197A109B109892F91
:100CB0009A2FAB2FBB27F801808309E210E0E9816E
:100CC000FA8180819181A281B381880F991FAA1F27
:100CD000BB1F880F991FAA1FBB1F880F991FAA1F30
:100CE000BB1F880F991FAA1FBB1F9C01AD0180E08D
:100CF00092E1AAE7B0E0BC01CD010E94A018DA01A0
:100D0000C9018150F80180834CC000E410E0E98102
:100D1000FA8180819181A281B381880F991FAA1FD6
:100D2000BB1F880F991FAA1FBB1F880F991FAA1FDF
:100D3000BB1F9C01AD0180E092E1AAE7B0E0BC01DD
:100D4000CD010E94A018DA01C9010197A109B109DA
:100D5000892F9A2FAB2FBB27F801808309E210E07F
:100D6000E981FA8180819181A281B381880F991FE5
:100D7000AA1FBB1F880F991FAA1FBB1F880F991F8F
:100D8000AA1FBB1F9C01AD0180E092E1AAE7B0E081
:100D9000BC01CD010E94A018DA01C9018150F801FF
:100DA00080830F900F900F900F90CF91DF911F9144
:100DB0000F910895DF93CF930F92CDB7DEB789835C
:100DC000EBE2F0E08081882F90E0807290700097D5
:100DD000B9F3ECE2F0E0898180830F90CF91DF914D
:100DE0000895DF93CF93CDB7DEB7EBE2F0E08081DB
:100DF0008823DCF7ECE2F0E08081CF91DF91089569
:100E0000DF93CF9300D00F92CDB7DEB79B838A8359
:100E100019820EC08981282F30E08A819B81FC01D4
:100E2000E20FF31F80810E94DA0689818F5F898338
:100E30008981282F30E08A819B81FC01E20FF31F1A
:100E40008081882339F70F900F900F90CF91DF9119
:100E500008950F931F93DF93CF9300D00F92CDB7D8
:100E6000DEB79B838A8319828981282F30E08A81AB
:100E70009B818C01020F131F0E94F106F8018083F1
:100E80000FC089818F5F89838981282F30E08A8113
:100E90009B818C01020F131F0E94F106F8018083D1
:100EA0008981282F30E08A819B81FC01E20FF31FAA
:100EB00080818D3031F78981282F30E08A819B81B4
:100EC000FC01E20FF31F10820F900F900F90CF9153
:100ED000DF911F910F910895DF93CF930F92CDB7BC
:100EE000DEB78983A0E4B0E0E0E4F0E08081282F61
:100EF0002F7C8981882F90E082959295907F98270A
:100F0000807F9827822B8C930F90CF91DF9108954B
:100F1000DF93CF930F92CDB7DEB78983A0E4B0E023
:100F2000E0E4F0E08081282F277F8981882F90E0FE
:100F3000880F991F880F991F880F991F822B8C93F8
:100F40000F90CF91DF910895DF93CF93CDB7DEB7A8
:100F5000EBE2F0E080E28083EAE2F0E01082E0E49D
:100F6000F0E086E88083E0E4F0E01082E9E2F0E07F
:100F70001082CF91DF910895CF92DF92EF92FF928E
:100F80000F931F93DF93CF9300D0CDB7DEB79A8333
:100F90008983A1E2B0E0E1E2F0E08081982F9C7FBC
:100FA000E981FA818581892B8C93CC24DD24689496
:100FB000C5F8E981FA81218132814381548180E041
:100FC00092E1AAE7B0E0BC01CD010E94A018DA01CD
:100FD000C9014097A109B1097C018D0116950795BA
:100FE000F794E794E981FA818581282F30E084E045
:100FF00090E002C0880F991F2A95E2F79C014427D0
:1010000037FD4095542FC801B7010E94A018DA019E
:10101000C901F6018083A2E2B0E0E981FA81808112
:10102000880F8C93E6E5F0E084E080830F900F90CA
:10103000CF91DF911F910F91FF90EF90DF90CF90B4
:101040000895DF93CF93CDB7DEB7E6E5F0E084EA0D
:101050008083E6E5F0E080818823DCF7CF91DF91A3
:101060000895DF93CF93CDB7DEB7E6E5F0E084E9EE
:101070008083CF91DF910895DF93CF930F92CDB707
:10108000DEB78983E3E2F0E089818083E6E5F0E082
:1010900084E88083E6E5F0E080818823DCF70F9028
:1010A000CF91DF910895DF93CF93CDB7DEB7E6E51B
:1010B000F0E084EC8083E6E5F0E080818823DCF7D3
:1010C000E3E2F0E08081CF91DF910895DF93CF9349
:1010D000CDB7DEB7E6E5F0E084E88083E6E5F0E052
:1010E00080818823DCF7E3E2F0E08081CF91DF911B
:1010F0000895DF93CF930F92CDB7DEB7E1E2F0E032
:101100008081887F898389810F90CF91DF910895B5
:10111000DF93CF93CDB7DEB7E0E2F0E01082E1E2FB
:10112000F0E088EF8083E2E2F0E08EEF8083A6E5D6
:10113000B0E0E6E5F0E080818B7F8C93CF91DF918A
:101140000895DF93CF93CDB7DEB727970FB6F89406
:10115000DEBF0FBECDBF8A836B8381E089838B8125
:101160008130D1F58A81282F30E03F832E838E8114
:101170009F8181309105D9F02E813F812230310548
:101180002CF48E819F81009761F023C02E813F81D6
:101190002230310591F08E819F818330910599F045
:1011A00018C0EAE3F0E08FEF8083198250C0E7E3D4
:1011B000F0E08FEF808319824AC0E4E3F0E08FEF24
:1011C0008083198244C0E1E3F0E08FEF80831982CD
:1011D0003EC081E089833BC08B818823B1F58A8141
:1011E000282F30E03D832C838C819D8181309105B7
:1011F000D1F02C813D81223031052CF48C819D81F0
:10120000009761F01FC02C813D812230310581F0B3
:101210008C819D818330910581F014C0EAE3F0E078
:101220001082198214C0E7E3F0E0108219820FC027
:10123000E4E3F0E0108219820AC0E1E3F0E01082FA
:10124000198205C081E0898302C084E08983898195
:1012500027960FB6F894DEBF0FBECDBFCF91DF91BA
:101260000895DF93CF93CDB7DEB728970FB6F894E4
:10127000DEBF0FBECDBF8A836B834C8381E0898341
:101280008B81883008F0FDC08C81813009F077C0F7
:101290008A81282F30E038872F838F81988581308D
:1012A000910559F12F813885223031052CF48F8139
:1012B0009885009769F060C02F813885223031050C
:1012C00089F18F8198858330910509F440C054C01D
:1012D000AAE3B0E0EAE3F0E08081482F8B81282F79
:1012E00030E081E090E0022E02C0880F991F0A943E
:1012F000E2F7842B8C931982C6C0A7E3B0E0E7E342
:10130000F0E08081482F8B81282F30E081E090E051
:10131000022E02C0880F991F0A94E2F7842B8C9347
:101320001982B1C0A4E3B0E0E4E3F0E08081482F8B
:101330008B81282F30E081E090E0022E02C0880FE0
:10134000991F0A94E2F7842B8C9319829CC0A1E325
:10135000B0E0E1E3F0E08081482F8B81282F30E07E
:1013600081E090E0022E02C0880F991F0A94E2F7F4
:10137000842B8C93198287C081E0898384C08C81FF
:10138000882309F07BC08A81282F30E03E832D839B
:101390008D819E818130910561F12D813E812230C8
:1013A00031052CF48D819E81009769F064C02D81F8
:1013B0003E812230310599F18D819E8183309105E6
:1013C00009F443C058C0AAE3B0E0EAE3F0E080814A
:1013D000482F8B81282F30E081E090E0022E02C060
:1013E000880F991F0A94E2F7809584238C931982C1
:1013F0004AC0A7E3B0E0E7E3F0E08081482F8B81AB
:10140000282F30E081E090E0022E02C0880F991F63
:101410000A94E2F7809584238C93198234C0A4E364
:10142000B0E0E4E3F0E08081482F8B81282F30E0AA
:1014300081E090E0022E02C0880F991F0A94E2F723
:10144000809584238C9319821EC0A1E3B0E0E1E370
:10145000F0E08081482F8B81282F30E081E090E000
:10146000022E02C0880F991F0A94E2F78095842308
:101470008C93198208C081E0898305C084E0898348
:1014800002C082E08983898128960FB6F894DEBF76
:101490000FBECDBFCF91DF910895DF93CF9300D0E2
:1014A00000D00F92CDB7DEB78A836B8381E089834A
:1014B0008A81282F30E03D832C838C819D8181306F
:1014C0009105D9F02C813D81223031052CF48C819D
:1014D0009D81009761F023C02C813D812230310530
:1014E00091F08C819D818330910599F018C0EBE3D8
:1014F000F0E08B818083198214C0E8E3F0E08B81F7
:10150000808319820EC0E5E3F0E08B81808319822D
:1015100008C0E2E3F0E08B818083198202C081E0A1
:10152000898389810F900F900F900F900F90CF912A
:10153000DF910895DF93CF93CDB7DEB728970FB62D
:10154000F894DEBF0FBECDBF8A836B834C8381E0EE
:1015500089838B81883008F0FDC08C81813009F04F
:1015600077C08A81282F30E038872F838F81988534
:101570008130910559F12F813885223031052CF4C5
:101580008F819885009769F060C02F81388522305F
:10159000310589F18F8198858330910509F440C028
:1015A00054C0ABE3B0E0EBE3F0E08081482F8B81E7
:1015B000282F30E081E090E0022E02C0880F991FB2
:1015C0000A94E2F7842B8C931982C6C0A8E3B0E09A
:1015D000E8E3F0E08081482F8B81282F30E081E024
:1015E00090E0022E02C0880F991F0A94E2F7842B24
:1015F0008C931982B1C0A5E3B0E0E5E3F0E080810F
:10160000482F8B81282F30E081E090E0022E02C02D
:10161000880F991F0A94E2F7842B8C9319829CC03F
:10162000A2E3B0E0E2E3F0E08081482F8B81282F35
:1016300030E081E090E0022E02C0880F991F0A94EA
:10164000E2F7842B8C93198287C081E0898384C060
:101650008C81882309F07BC08A81282F30E03E836B
:101660002D838D819E818130910561F12D813E8197
:10167000223031052CF48D819E81009769F064C081
:101680002D813E812230310599F18D819E818330FB
:10169000910509F443C058C0ABE3B0E0EBE3F0E0E0
:1016A0008081482F8B81282F30E081E090E0022E4E
:1016B00002C0880F991F0A94E2F7809584238C93C7
:1016C00019824AC0A8E3B0E0E8E3F0E08081482F47
:1016D0008B81282F30E081E090E0022E02C0880F3D
:1016E000991F0A94E2F7809584238C93198234C061
:1016F000A5E3B0E0E5E3F0E08081482F8B81282F5F
:1017000030E081E090E0022E02C0880F991F0A9419
:10171000E2F7809584238C9319821EC0A2E3B0E087
:10172000E2E3F0E08081482F8B81282F30E081E0D8
:1017300090E0022E02C0880F991F0A94E2F780956C
:1017400084238C93198208C081E0898305C084E0DA
:10175000898302C082E08983898128960FB6F89434
:10176000DEBF0FBECDBFCF91DF910895DF93CF9342
:1017700000D000D000D0CDB7DEB78A837C836B83E6
:1017800081E089838B819C81009719F485E08983AE
:1017900041C08A81282F30E03E832D838D819E8138
:1017A00081309105E9F02D813E81223031052CF404
:1017B0008D819E81009761F02BC02D813E8122306A
:1017C0003105B1F08D819E8183309105C9F020C033
:1017D000E9E3F0E08081EB81FC81808319821AC00B
:1017E000E6E3F0E08081EB81FC818083198212C006
:1017F000E3E3F0E08081EB81FC81808319820AC001
:10180000E0E3F0E08081EB81FC818083198202C0FB
:1018100081E08983898126960FB6F894DEBF0FBEDA
:10182000CDBFCF91DF910895DF93CF93CDB7DEB7D2
:1018300027970FB6F894DEBF0FBECDBF8A836B83A8
:101840005D834C8381E089838C819D81009719F4AD
:1018500085E08983AFC08B81883008F0A9C08A8178
:10186000282F30E03F832E834E815F814130510528
:10187000C9F18E819F818230910534F42E813F81A0
:101880002115310571F091C04E815F8142305105C3
:1018900009F449C08E819F818330910509F464C0A9
:1018A00084C0E9E3F0E08081482F50E08B81282F4D
:1018B00030E081E090E002C0880F991F2A95E2F79E
:1018C0009A01282339238B81882F90E0A90102C037
:1018D000559547958A95E2F7CA01EC81FD81808391
:1018E000198268C0E6E3F0E08081482F50E08B81E8
:1018F000282F30E081E090E002C0880F991F2A95E0
:10190000E2F79A01282339238B81882F90E0A901DF
:1019100002C0559547958A95E2F7CA01EC81FD8191
:101920008083198247C0E3E3F0E08081482F50E0D4
:101930008B81282F30E081E090E002C0880F991F52
:101940002A95E2F79A01282339238B81882F90E08A
:10195000A90102C0559547958A95E2F7CA01EC8125
:10196000FD818083198226C0E0E3F0E08081482F6A
:1019700050E08B81282F30E081E090E002C0880F9A
:10198000991F2A95E2F79A01282339238B81882F02
:1019900090E0A90102C0559547958A95E2F7CA01E2
:1019A000EC81FD818083198205C081E0898302C0BA
:1019B00082E08983898127960FB6F894DEBF0FBE37
:1019C000CDBFCF91DF910895DF93CF9300D000D0AA
:1019D0000F92CDB7DEB78A836B8381E089838B81D9
:1019E000883008F077C08A81282F30E03D832C832F
:1019F0008C819D818130910559F12C813D8122306E
:101A000031052CF48C819D81009769F060C02C8198
:101A10003D812230310589F18C819D818330910592
:101A200009F440C054C0ABE3B0E0EBE3F0E08081E8
:101A3000482F8B81282F30E081E090E0022E02C0F9
:101A4000880F991F0A94E2F784278C93198244C067
:101A5000A8E3B0E0E8E3F0E08081482F8B81282FF5
:101A600030E081E090E0022E02C0880F991F0A94B6
:101A7000E2F784278C9319822FC0A5E3B0E0E5E359
:101A8000F0E08081482F8B81282F30E081E090E0CA
:101A9000022E02C0880F991F0A94E2F784278C93C4
:101AA00019821AC0A2E3B0E0E2E3F0E08081482F9F
:101AB0008B81282F30E081E090E0022E02C0880F59
:101AC000991F0A94E2F784278C93198205C081E05C
:101AD000898302C082E0898389810F900F900F90E3
:101AE0000F900F90CF91DF910895DF93CF93CDB7F3
:101AF000DEB7AAE3B0E0EAE3F0E080818E608C9389
:101B0000AAE3B0E0EAE3F0E08081806F8C9382E0AA
:101B10000E94960D88E20E94960D8CE00E94960D20
:101B200081E00E94960DCF91DF9108950F931F934E
:101B3000DF93CF93CDB7DEB7C356D0400FB6F8943E
:101B4000DEBF0FBECDBFFE01ED59FF4F8083ABE37B
:101B5000B0E0EBE3F0E080818D7F8C93ABE3B0E00D
:101B6000EBE3F0E080818B7F8C93FE01E15AFF4F25
:101B700080E090E0A0E8BFE380839183A283B383F9
:101B80008E01055A1F4FFE01E15AFF4F608171819E
:101B90008281938120E030E04AEF54E40E941F02EA
:101BA000DC01CB01F80180839183A283B383FE0122
:101BB000E55AFF4F608171818281938120E030E09E
:101BC00040E85FE30E947903882344F4FE01E75A6A
:101BD000FF4F81E090E09183808364C0FE01E55A6D
:101BE000FF4F608171818281938120E03FEF4FE759
:101BF00057E40E94190318160CF043C0FE01E15A85
:101C0000FF4F608171818281938120E030E040E26A
:101C100051E40E941F02DC01CB018E01075A1F4FC5
:101C2000BC01CD010E944900DC01CB01F801918388
:101C300080831FC0FE01E95AFF4F88EC90E091833A
:101C40008083FE01E95AFF4F808191810197F1F76E
:101C5000FE01E95AFF4F91838083DE01A75ABF4FEF
:101C6000FE01E75AFF4F80819181019711969C9365
:101C70008E93FE01E75AFF4F808191810097D1F644
:101C800027C08E01075A1F4FFE01E55AFF4F6081A2
:101C90007181828193810E944900DC01CB01F801AE
:101CA00091838083DE01AB5ABF4FFE01E75AFF4F9D
:101CB000808191818D939C93FE01EB5AFF4F80812F
:101CC00091810197F1F7FE01EB5AFF4F91838083D9
:101CD000ABE3B0E0EBE3F0E0808188608C93FE0141
:101CE000EF5AFF4F80E090E0A0E8BFE3808391834C
:101CF000A283B3838E01035B1F4FFE01EF5AFF4F98
:101D0000608171818281938120E030E04AEF54E468
:101D10000E941F02DC01CB01F80180839183A28322
:101D2000B383FE01E35BFF4F608171818281938108
:101D300020E030E040E85FE30E947903882344F428
:101D4000FE01E55BFF4F81E090E09183808364C0FA
:101D5000FE01E35BFF4F608171818281938120E00E
:101D60003FEF4FE757E40E94190318160CF043C0E9
:101D7000FE01EF5AFF4F608171818281938120E0E3
:101D800030E040E251E40E941F02DC01CB018E01F1
:101D9000055B1F4FBC01CD010E944900DC01CB0156
:101DA000F801918380831FC0FE01E75BFF4F88EC41
:101DB00090E091838083FE01E75BFF4F80819181FA
:101DC0000197F1F7FE01E75BFF4F91838083DE010E
:101DD000A55BBF4FFE01E55BFF4F808191810197BD
:101DE00011969C938E93FE01E55BFF4F808191815C
:101DF0000097D1F627C08E01055B1F4FFE01E35B04
:101E0000FF4F60817181828193810E944900DC01D2
:101E1000CB01F80191838083DE01A95BBF4FFE01F6
:101E2000E55BFF4F808191818D939C93FE01E95B7F
:101E3000FF4F808191810197F1F7FE01E95BFF4F30
:101E400091838083ABE3B0E0EBE3F0E08081982FF7
:101E50009F70FE01ED59FF4F8081807F892B8C930D
:101E6000FE01ED5BFF4F80E090E0A0E8BFE38083E0
:101E70009183A283B3838E01015C1F4FFE01ED5B52
:101E8000FF4F608171818281938120E030E04AEFD1
:101E900054E40E941F02DC01CB01F801808391838E
:101EA000A283B383FE01FF96608171818281938159
:101EB00020E030E040E85FE30E94790388232CF4BF
:101EC00081E090E09EAF8DAF46C0FE01FF9660813D
:101ED00071818281938120E03FEF4FE757E40E94B8
:101EE0001903181664F5FE01ED5BFF4F60817181E7
:101EF0008281938120E030E040E251E40E941F02A1
:101F0000DC01CB01BC01CD010E944900DC01CB0109
:101F10009EAF8DAF0FC088EC90E09CAF8BAF8BADC8
:101F20009CAD0197F1F79CAF8BAF8DAD9EAD019746
:101F30009EAF8DAF8DAD9EAD009769F716C0FE01C7
:101F4000FF9660817181828193810E944900DC014A
:101F5000CB019EAF8DAF8DAD9EAD9AAF89AF89ADF0
:101F60009AAD0197F1F79AAF89AFABE3B0E0EBE33D
:101F7000F0E08081877F8C9380E090E0A0E8BFE371
:101F80008DAB9EABAFABB8AF6DA97EA98FA998AD55
:101F900020E030E04AEF54E40E941F02DC01CB0154
:101FA00089AB9AABABABBCAB69A97AA98BA99CA94D
:101FB00020E030E040E85FE30E94790388232CF4BE
:101FC00081E090E098AB8FA73FC069A97AA98BA95F
:101FD0009CA920E03FEF4FE757E40E941903181631
:101FE0004CF56DA97EA98FA998AD20E030E040E2C4
:101FF00051E40E941F02DC01CB01BC01CD010E9413
:102000004900DC01CB0198AB8FA70FC088EC90E0B2
:102010009EA78DA78DA59EA50197F1F79EA78DA7D9
:102020008FA598A9019798AB8FA78FA598A900971E
:1020300069F714C069A97AA98BA99CA90E944900D3
:10204000DC01CB0198AB8FA78FA598A99CA78BA784
:102050008BA59CA50197F1F79CA78BA7ABE3B0E0FC
:10206000EBE3F0E0808188608C9380E090E0A0E872
:10207000BFE38FA398A7A9A7BAA76FA178A589A541
:102080009AA520E030E04AEF54E40E941F02DC01F0
:10209000CB018BA39CA3ADA3BEA36BA17CA18DA1FF
:1020A0009EA120E030E040E85FE30E9479038823AE
:1020B0002CF481E090E09AA389A33FC06BA17CA19E
:1020C0008DA19EA120E03FEF4FE757E40E94190346
:1020D00018164CF56FA178A589A59AA520E030E0E7
:1020E00040E251E40E941F02DC01CB01BC01CD01A2
:1020F0000E944900DC01CB019AA389A30FC088ECA0
:1021000090E098A38F8F8F8D98A10197F1F798A3F6
:102110008F8F89A19AA101979AA389A389A19AA1D6
:10212000009769F714C06BA17CA18DA19EA10E94AC
:102130004900DC01CB019AA389A389A19AA19E8FB2
:102140008D8F8D8D9E8D0197F1F79E8F8D8FABE3D7
:10215000B0E0EBE3F0E08081282F2F70FE01ED5915
:10216000FF4F8081882F90E082959295907F9827ED
:10217000807F9827822B8C9380E090E0A0E8BFE3DB
:10218000898F9A8FAB8FBC8F698D7A8D8B8D9C8D4B
:1021900020E030E04AEF54E40E941F02DC01CB0152
:1021A0008D8B9E8BAF8BB88F6D897E898F89988D33
:1021B00020E030E040E85FE30E94790388232CF4BC
:1021C00081E090E09C8B8B8B3FC06D897E898F89ED
:1021D000988D20E03FEF4FE757E40E94190318164F
:1021E0004CF5698D7A8D8B8D9C8D20E030E040E23E
:1021F00051E40E941F02DC01CB01BC01CD010E9411
:102200004900DC01CB019C8B8B8B0FC088EC90E0EC
:102210009A8B898B89899A890197F1F79A8B898B97
:102220008B899C8901979C8B8B8B8B899C890097D0
:1022300069F714C06D897E898F89988D0E94490045
:10224000DC01CB019C8B8B8B8B899C89988B8F8736
:102250008F8598890197F1F7988B8F87ABE3B0E072
:10226000EBE3F0E08081877F8C9380E090E0A0E852
:10227000BFE38B879C87AD87BE876B857C858D850B
:102280009E8520E030E04AEF54E40E941F02DC010A
:10229000CB018F839887A987BA876F8178858985D5
:1022A0009A8520E030E040E85FE30E9479038823CC
:1022B0002CF481E090E09E838D833FC06F81788510
:1022C00089859A8520E03FEF4FE757E40E94190384
:1022D00018164CF56B857C858D859E8520E030E059
:1022E00040E251E40E941F02DC01CB01BC01CD01A0
:1022F0000E944900DC01CB019E838D830FC088ECD6
:1023000090E09C838B838B819C810197F1F79C8368
:102310008B838D819E8101979E838D838D819E818C
:10232000009769F714C06F81788589859A850E9426
:102330004900DC01CB019E838D838D819E819A8330
:10234000898389819A810197F1F79A838983CD598D
:10235000DF4F0FB6F894DEBF0FBECDBFCF91DF9138
:102360001F910F9108950F931F93DF93CF93CDB7D4
:10237000DEB7C356D0400FB6F894DEBF0FBECDBF58
:10238000FE01ED59FF4F8083ABE3B0E0EBE3F0E0FB
:10239000808182608C93ABE3B0E0EBE3F0E080817E
:1023A0008B7F8C93FE01E15AFF4F80E090E0A0E824
:1023B000BFE380839183A283B3838E01055A1F4FAD
:1023C000FE01E15AFF4F608171818281938120E09B
:1023D00030E04AEF54E40E941F02DC01CB01F80117
:1023E00080839183A283B383FE01E55AFF4F60810E
:1023F00071818281938120E030E040E85FE30E94B8
:102400007903882344F4FE01E75AFF4F81E090E00E
:102410009183808364C0FE01E55AFF4F6081718122
:102420008281938120E03FEF4FE757E40E94190338
:1024300018160CF043C0FE01E15AFF4F6081718114
:102440008281938120E030E040E251E40E941F024B
:10245000DC01CB018E01075A1F4FBC01CD010E9448
:102460004900DC01CB01F801918380831FC0FE018C
:10247000E95AFF4F88EC90E091838083FE01E95A8E
:10248000FF4F808191810197F1F7FE01E95AFF4FDB
:1024900091838083DE01A75ABF4FFE01E75AFF4FA9
:1024A00080819181019711969C938E93FE01E75A4A
:1024B000FF4F808191810097D1F627C08E01075A86
:1024C0001F4FFE01E55AFF4F608171818281938128
:1024D0000E944900DC01CB01F80191838083DE0179
:1024E000AB5ABF4FFE01E75AFF4F808191818D9318
:1024F0009C93FE01EB5AFF4F808191810197F1F788
:10250000FE01EB5AFF4F91838083ABE3B0E0EBE336
:10251000F0E0808188608C93FE01EF5AFF4F80E0ED
:1025200090E0A0E8BFE380839183A283B3838E0110
:10253000035B1F4FFE01EF5AFF4F60817181828163
:10254000938120E030E04AEF54E40E941F02DC0156
:10255000CB01F80180839183A283B383FE01E35B07
:10256000FF4F608171818281938120E030E040E8FB
:102570005FE30E947903882344F4FE01E55BFF4F8B
:1025800081E090E09183808364C0FE01E35BFF4FB4
:10259000608171818281938120E03FEF4FE757E4B2
:1025A0000E94190318160CF043C0FE01EF5AFF4FAA
:1025B000608171818281938120E030E040E251E4CA
:1025C0000E941F02DC01CB018E01055B1F4FBC0185
:1025D000CD010E944900DC01CB01F8019183808389
:1025E0001FC0FE01E75BFF4F88EC90E09183808382
:1025F000FE01E75BFF4F808191810197F1F7FE01BA
:10260000E75BFF4F91838083DE01A55BBF4FFE0137
:10261000E55BFF4F80819181019711969C938E938A
:10262000FE01E55BFF4F808191810097D1F627C0C5
:102630008E01055B1F4FFE01E35BFF4F60817181DF
:10264000828193810E944900DC01CB01F8019183D2
:102650008083DE01A95BBF4FFE01E55BFF4F8081F8
:1026600091818D939C93FE01E95BFF4F8081918165
:102670000197F1F7FE01E95BFF4F91838083ABE3A4
:10268000B0E0EBE3F0E08081982F9F70FE01ED5900
:10269000FF4F8081807F892B8C93FE01ED5BFF4F84
:1026A00080E090E0A0E8BFE380839183A283B383BE
:1026B0008E01015C1F4FFE01ED5BFF4F6081718158
:1026C0008281938120E030E04AEF54E40E941F02AF
:1026D000DC01CB01F80180839183A283B383FE01E7
:1026E000FF96608171818281938120E030E040E833
:1026F0005FE30E94790388232CF481E090E09EAF91
:102700008DAF46C0FE01FF96608171818281938109
:1027100020E03FEF4FE757E40E941903181664F5D5
:10272000FE01ED5BFF4F608171818281938120E02A
:1027300030E040E251E40E941F02DC01CB01BC0109
:10274000CD010E944900DC01CB019EAF8DAF0FC0CF
:1027500088EC90E09CAF8BAF8BAD9CAD0197F1F70F
:102760009CAF8BAF8DAD9EAD01979EAF8DAF8DAD04
:102770009EAD009769F716C0FE01FF9660817181DA
:10278000828193810E944900DC01CB019EAF8DAF15
:102790008DAD9EAD9AAF89AF89AD9AAD0197F1F736
:1027A0009AAF89AFABE3B0E0EBE3F0E08081877FE5
:1027B0008C9380E090E0A0E8BFE38DAB9EABAFAB25
:1027C000B8AF6DA97EA98FA998AD20E030E04AEF9F
:1027D00054E40E941F02DC01CB0189AB9AABABAB86
:1027E000BCAB69A97AA98BA99CA920E030E040E89C
:1027F0005FE30E94790388232CF481E090E098AB9A
:102800008FA73FC069A97AA98BA99CA920E03FEFB7
:102810004FE757E40E94190318164CF56DA97EA9DD
:102820008FA998AD20E030E040E251E40E941F0201
:10283000DC01CB01BC01CD010E944900DC01CB01D0
:1028400098AB8FA70FC088EC90E09EA78DA78DA5B1
:102850009EA50197F1F79EA78DA78FA598A901972F
:1028600098AB8FA78FA598A9009769F714C069A99D
:102870007AA98BA99CA90E944900DC01CB0198ABE5
:102880008FA78FA598A99CA78BA78BA59CA501971F
:10289000F1F79CA78BA7ABE3B0E0EBE3F0E080811E
:1028A00088608C9380E090E0A0E8BFE38FA398A7B6
:1028B000A9A7BAA76FA178A589A59AA520E030E0BD
:1028C0004AEF54E40E941F02DC01CB018BA39CA3BE
:1028D000ADA3BEA36BA17CA18DA19EA120E030E0A1
:1028E00040E85FE30E94790388232CF481E090E0C4
:1028F0009AA389A33FC06BA17CA18DA19EA120E0DA
:102900003FEF4FE757E40E94190318164CF56FA1EB
:1029100078A589A59AA520E030E040E251E40E9424
:102920001F02DC01CB01BC01CD010E944900DC018A
:10293000CB019AA389A30FC088EC90E098A38F8F56
:102940008F8D98A10197F1F798A38F8F89A19AA1F4
:1029500001979AA389A389A19AA1009769F714C046
:102960006BA17CA18DA19EA10E944900DC01CB013D
:102970009AA389A389A19AA19E8F8D8F8D8D9E8DFB
:102980000197F1F79E8F8D8FABE3B0E0EBE3F0E0C2
:102990008081282F2F70FE01ED59FF4F8081882FF5
:1029A00090E082959295907F9827807F9827822B40
:1029B0008C9380E090E0A0E8BFE3898F9A8FAB8F83
:1029C000BC8F698D7A8D8B8D9C8D20E030E04AEF35
:1029D00054E40E941F02DC01CB018D8B9E8BAF8BD8
:1029E000B88F6D897E898F89988D20E030E040E82E
:1029F0005FE30E94790388232CF481E090E09C8BB4
:102A00008B8B3FC06D897E898F89988D20E03FEF49
:102A10004FE757E40E94190318164CF5698D7A8D1B
:102A20008B8D9C8D20E030E040E251E40E941F023B
:102A3000DC01CB01BC01CD010E944900DC01CB01CE
:102A40009C8B8B8B0FC088EC90E09A8B898B89894B
:102A50009A890197F1F79A8B898B8B899C890197C9
:102A60009C8B8B8B8B899C89009769F714C06D892F
:102A70007E898F89988D0E944900DC01CB019C8B57
:102A80008B8B8B899C89988B8F878F8598890197F1
:102A9000F1F7988B8F87ABE3B0E0EBE3F0E0808158
:102AA000877F8C9380E090E0A0E8BFE38B879C87D2
:102AB000AD87BE876B857C858D859E8520E030E067
:102AC0004AEF54E40E941F02DC01CB018F839887F8
:102AD000A987BA876F81788589859A8520E030E05B
:102AE00040E85FE30E94790388232CF481E090E0C2
:102AF0009E838D833FC06F81788589859A8520E08C
:102B00003FEF4FE757E40E94190318164CF56B8509
:102B10007C858D859E8520E030E040E251E40E9476
:102B20001F02DC01CB01BC01CD010E944900DC0188
:102B3000CB019E838D830FC088EC90E09C838B83B8
:102B40008B819C810197F1F79C838B838D819E8182
:102B500001979E838D838D819E81009769F714C0B4
:102B60006F81788589859A850E944900DC01CB01B7
:102B70009E838D838D819E819A83898389819A81A9
:102B80000197F1F79A838983CD59DF4F0FB6F894F7
:102B9000DEBF0FBECDBFCF91DF911F910F91089582
:102BA000DF93CF9300D00F92CDB7DEB79B838A839C
:102BB00019820EC08981282F30E08A819B81FC0117
:102BC000E20FF31F80810E94B31189818F5F898397
:102BD0008981282F30E08A819B81FC01E20FF31F5D
:102BE0008081882339F70F900F900F90CF91DF915C
:102BF0000895DF93CF9300D000D00F92CDB7DEB70A
:102C00008A836B838A81282F30E03D832C838C81DB
:102C10009D8181309105C1F02C813D8122303105AB
:102C20002CF48C819D81009761F019C02C813D812D
:102C30002230310569F08C819D818330910561F0EE
:102C40000EC08B8189830BC08B81805C898307C018
:102C50008B81805F898303C08B81805B89838981BD
:102C600080680E94960D0F900F900F900F900F901C
:102C7000CF91DF910895DF93CF9300D000D0CDB7EF
:102C8000DEB789836A835C834B8389816A810E9472
:102C9000F9158B819C810E94D0150F900F900F9099
:102CA0000F90CF91DF910895DF93CF93CDB7DEB72B
:102CB00064970FB6F894DEBF0FBECDBF698B7A8BD9
:102CC0008B8B9C8B89899A899E012F5F3F4FB9011D
:102CD0004AE050E00E942019CE0101960E94D015D2
:102CE00064960FB6F894DEBF0FBECDBFCF91DF91D3
:102CF0000895DF93CF93CDB7DEB781E00E94960DA4
:102D0000CF91DF910895DF93CF93CDB7DEB72B97A7
:102D10000FB6F894DEBF0FBECDBFCE0101969887E7
:102D20008F83E4E9F0E0FA87E987F6E0FB87E9853D
:102D3000FA85008089859A8501969A878987EF812F
:102D4000F88500828F819885019698878F839B856F
:102D500091509B87EB85EE2351F7CE0101960E949F
:102D6000BC072B960FB6F894DEBF0FBECDBFCF9138
:102D7000DF910895DF93CF9300D000D0CDB7DEB7B9
:102D80009A8389836B830E9421080E947908883086
:102D900011F01C8228C089819A8180709770880FF9
:102DA000892F881F990B9195806A0E943C080E9488
:102DB0007908883111F01C8216C089810E943C0874
:102DC0000E947908883211F01C820DC08B810E940C
:102DD0003C080E947908883211F01C8204C00E94CD
:102DE000310881E08C838C810F900F900F900F90B1
:102DF000CF91DF910895DF93CF9300D000D00F9251
:102E0000CDB7DEB79A8389837C836B830E942108C8
:102E10000E947908883011F01D8244C089819A810E
:102E200080709770880F892F881F990B9195806A01
:102E30000E943C080E947908883111F01D8232C03E
:102E400089810E943C080E947908883211F01D8215
:102E500029C00E9421080E947908803111F01D824A
:102E600021C089819A8180709770880F892F881F6F
:102E7000990B9195816A0E943C080E9479088034E0
:102E800011F01D820FC00E946608EB81FC818083D7
:102E90000E947908883511F01D8204C00E94310813
:102EA00081E08D838D810F900F900F900F900F9088
:102EB000CF91DF910895DF93CF93CDB7DEB72D97F4
:102EC0000FB6F894DEBF0FBECDBFCE0101969A8734
:102ED0008987EAE9F0E0FC87EB87F8E0FD87EB857E
:102EE000FC8500808B859C8501969C878B87E98576
:102EF000FA85008289859A8501969A8789879D85BA
:102F000091509D87ED85EE2351F7CE0101960E94E9
:102F1000A3050E9483162D960FB6F894DEBF0FBE50
:102F2000CDBFCF91DF910895DF93CF93CDB7DEB7BB
:102F300028970FB6F894DEBF0FBECDBF98878F835A
:102F40001E821D821C821B8230C08F8198852AE0E0
:102F500030E0B9010E948C189A8389838F8198850B
:102F60002AE030E0B9010E948C18CB0198878F834A
:102F70002B813C8182E090E0B9010E94E4179C0122
:102F800089819A81A901489F9001499F300D589FDE
:102F9000300D11248D819E81820F931F9E838D831E
:102FA0008B819C8101969C838B838F819885009770
:102FB00061F68D819E8128960FB6F894DEBF0FBE14
:102FC000CDBFCF91DF910895DF93CF9300D000D094
:102FD00000D0CDB7DEB79C838B837E836D8381E089
:102FE00090E09A83898313C029813A818B819C81E7
:102FF000AC01249FC001259F900D349F900D11249A
:103000009A8389838D819E8101979E838D838D8193
:103010009E81009749F789819A8126960FB6F89488
:10302000DEBF0FBECDBFCF91DF910895DF93CF9369
:1030300000D0CDB7DEB71A8219828DEA90E00E94E7
:1030400029078DEA90E020E630E0B9010E941719C7
:10305000009721F582EA90E00E94290782EA90E039
:103060000E94F9189A83898389819A810E94941712
:103070009A83898386E690E00E9400070E94F10609
:103080008093AC002091AC0089819A81622F0E94CC
:10309000BA168AE690E00E94000730C08DEA90E000
:1030A00020E730E0B9010E941719009739F582EA4C
:1030B00090E00E94290782EA90E00E94F9189A8322
:1030C000898389819A810E9494179A83898386E6ED
:1030D00090E00E94000789819A8127EB30E0B901D6
:1030E0000E94FB1685E790E00E9400078091B700E0
:1030F0000E94DA0689E890E00E9400070F900F9086
:10310000CF91DF910895DF93CF93CDB7DEB70E94C3
:103110005B170E941618FDCFAA1BBB1B51E107C00D
:10312000AA1FBB1FA617B70710F0A61BB70B881F57
:10313000991F5A95A9F780959095BC01CD010895E6
:10314000A1E21A2EAA1BBB1BFD010DC0AA1FBB1FAB
:10315000EE1FFF1FA217B307E407F50720F0A21B1D
:10316000B30BE40BF50B661F771F881F991F1A948A
:1031700069F760957095809590959B01AC01BD01B4
:10318000CF0108952F923F924F925F926F927F925C
:103190008F929F92AF92BF92CF92DF92EF92FF9267
:1031A0000F931F93CF93DF93CDB7DEB7CA1BDB0B13
:1031B0000FB6F894DEBF0FBECDBF09942A883988B8
:1031C00048885F846E847D848C849B84AA84B984BF
:1031D000C884DF80EE80FD800C811B81AA81B981CB
:1031E000CE0FD11D0FB6F894DEBF0FBECDBFED01DF
:1031F0000895FC0188279927E89421912032E9F36A
:10320000293010F02E30C8F32B3241F02D3239F432
:10321000689404C00E944119820F911D219120538E
:103220002A30C0F31EF4909581959F4F0895FB01BD
:10323000DC018D91019080190110D9F3990B08954B
:10324000FB019F01E8944230C4F04532B4F44A30A7
:1032500029F497FB1EF4909581959F4F642F772753
:103260000E948C18805D8A330CF0895D8193CB01BC
:103270000097A1F716F45DE251931082C9010C94F6
:1032800049197AE0979F902D879F802D910D1124E9
:103290000895DC01FC01672F71917723E1F73297E4
:1032A00004C07C916D9370836291AE17BF07C8F321
:0632B0000895F894FFCF21
:1032B6005752495445004F4B0D000D4F4B0D0D0015
:1032C60052454144005468652064617461207374FA
:1032D6006F72656420697320000D0D000000000008
:1032E6000000000001801A0600008025000000038F
:0232F6000000D6
:00000001FF
