:100000000C942A000C9447000C9447000C94470071
:100010000C9448010C9415010C9447000C94E200D8
:100020000C9447000C94AF000C947C000C94490095
:100030000C9447000C9447000C9447000C94470024
:100040000C9447000C9447000C9447000C94470014
:100050000C94470011241FBECFE5D8E0DEBFCDBF12
:1000600010E0A0E6B0E0E6E8F7E102C005900D92EE
:10007000A838B107D9F710E0A8E8B0E001C01D9298
:10008000A239B107E1F70E94730B0C94C10B0C94D9
:1000900000001F920F920FB60F9211242F933F93DF
:1000A0004F935F936F937F938F939F93AF93BF9380
:1000B000EF93FF93DF93CF93CDB7DEB780918800A6
:1000C00090918900009729F0E0918800F0918900D3
:1000D0000995CF91DF91FF91EF91BF91AF919F91E2
:1000E0008F917F916F915F914F913F912F910F90E1
:1000F0000FBE0F901F9018951F920F920FB60F9280
:1001000011242F933F934F935F936F937F938F931C
:100110009F93AF93BF93EF93FF93DF93CF93CDB7AD
:10012000DEB78091880090918900009729F0E091D6
:100130008800F09189000995CF91DF91FF91EF91AF
:10014000BF91AF919F918F917F916F915F914F91EF
:100150003F912F910F900FBE0F901F9018951F92F7
:100160000F920FB60F9211242F933F934F935F93EB
:100170006F937F938F939F93AF93BF93EF93FF936F
:10018000DF93CF93CDB7DEB780918A0090918B003B
:10019000009729F0E0918A00F0918B000995CF91AA
:1001A000DF91FF91EF91BF91AF919F918F917F91DF
:1001B0006F915F914F913F912F910F900FBE0F90D4
:1001C0001F9018951F920F920FB60F9211242F9324
:1001D0003F934F935F936F937F938F939F93AF93CF
:1001E000BF93EF93FF93DF93CF93CDB7DEB78091AB
:1001F0008A0090918B00009729F0E0918A00F0919D
:100200008B000995CF91DF91FF91EF91BF91AF9155
:100210009F918F917F916F915F914F913F912F911E
:100220000F900FBE0F901F9018951F920F920FB650
:100230000F9211242F933F934F935F936F937F936C
:100240008F939F93AF93BF93EF93FF93DF93CF93DE
:10025000CDB7DEB780918C0090918D00009729F08A
:10026000E0918C00F0918D000995CF91DF91FF9185
:10027000EF91BF91AF919F918F917F916F915F911E
:100280004F913F912F910F900FBE0F901F90189597
:100290001F920F920FB60F9211242F933F934F93FB
:1002A0005F936F937F938F939F93AF93BF93EF93DE
:1002B000FF93DF93CF93CDB7DEB780918C00909101
:1002C0008D00009729F0E0918C00F0918D00099548
:1002D000CF91DF91FF91EF91BF91AF919F918F915E
:1002E0007F916F915F914F913F912F910F900FBE32
:1002F0000F901F901895DF93CF93CDB7DEB72B9754
:100300000FB6F894DEBF0FBECDBF9B838A8381E01A
:100310008983EA81FB818481282F30E03B872A870B
:100320008A859B858130910509F450C02A853B85DB
:100330002230310509F49FC08A859B85009709F01A
:10034000DFC0E2E5F0E01082E3E5F0E01082ECE5EA
:10035000F0E01082A2E5B0E0EA81FB81808191812A
:100360008C93EA81FB818581282F30E039872887AB
:1003700088859985009731F02885398521303105A8
:1003800071F021C0E3E5F0E080E88083A9E5B0E00A
:10039000E9E5F0E0808181608C931982B3C0ACE51F
:1003A000B0E0EA81FB81828193818C93E3E5F0E008
:1003B00088E88083A9E5B0E0E9E5F0E0808182602B
:1003C0008C9319829FC082E089839CC0ECE4F0E0AA
:1003D00011821082EAE4F0E011821082EFE4F0E092
:1003E0001082EEE4F0E01082ACE4B0E0EA81FB8140
:1003F0008081918111969C938E93EA81FB81858106
:10040000282F30E03F832E838E819F81009731F02B
:100410002E813F812130310571F02AC0EFE4F0E0F8
:100420008CE08083A9E5B0E0E9E5F0E080818460BC
:100430008C93198267C0AAE4B0E0EA81FB818281D3
:10044000938111969C938E93EFE4F0E08CE080838F
:10045000AEE4B0E0EEE4F0E0808188608C93A9E542
:10046000B0E0E9E5F0E0808180618C9319824AC0B8
:1004700082E0898347C0E4E4F0E01082E5E4F0E044
:100480001082E3E4F0E01082A4E4B0E0EA81FB81B2
:10049000808191818C93EA81FB818581282F30E0D6
:1004A0003D832C838C819D81009731F02C813D818F
:1004B0002130310571F021C0E5E4F0E080E880836F
:1004C000A9E5B0E0E9E5F0E0808180648C931982D1
:1004D00019C0A3E4B0E0EA81FB81828193818C930F
:1004E000E5E4F0E088E88083A9E5B0E0E9E5F0E044
:1004F000808180688C93198205C082E0898302C064
:1005000081E0898389812B960FB6F894DEBF0FBEF8
:10051000CDBFCF91DF910895DF93CF9300D000D06E
:1005200000D0CDB7DEB79B838A836C8381E089835B
:100530008A819B81009719F483E089832AC08C818A
:10054000282F30E03E832D838D819E81813091055F
:1005500089F02D813E8122303105A1F08D819E816F
:100560000097B9F48A819B819093890080938800D9
:1005700019820FC08A819B8190938B0080938A009F
:10058000198207C08A819B8190938D0080938C0093
:100590001982898126960FB6F894DEBF0FBECDBFB3
:1005A000CF91DF910895DF93CF9300D000D00F92C9
:1005B000CDB7DEB78A836B8381E089838A81282F58
:1005C00030E03D832C838C819D8181309105A9F0A1
:1005D0002C813D8122303105E1F08C819D81009795
:1005E00021F5A3E5B0E0E3E5F0E08081982F987F66
:1005F0008B81892B8C9319821AC0AEE4B0E0EEE4B3
:10060000F0E08081982F987F8B81892B8C931982C1
:100610000EC0A5E4B0E0E5E4F0E08081982F987F7B
:100620008B81892B8C93198202C081E08983898117
:100630000F900F900F900F900F90CF91DF91089532
:10064000DF93CF9300D000D0CDB7DEB78A8381E0AF
:1006500089838A81282F30E03C832B838B819C8186
:100660008130910591F02B813C8122303105B1F030
:100670008B819C810097D9F4A3E5B0E0E3E5F0E03D
:100680008081887F8C93198214C0AEE4B0E0EEE4E0
:10069000F0E08081887F8C9319820BC0A5E4B0E0E4
:1006A000E5E4F0E08081887F8C93198202C081E0CC
:1006B000898389810F900F900F900F90CF91DF91D8
:1006C0000895DF93CF9300D000D0CDB7DEB78A83F3
:1006D00081E089838A81282F30E03C832B838B81C2
:1006E0009C818130910519F12B813C8122303105AB
:1006F000E1F18B819C81009709F050C0E2E5F0E0C8
:100700001082E3E5F0E01082ECE5F0E01082A9E56C
:10071000B0E0E9E5F0E080818C7F8C93A8E5B0E063
:10072000E8E5F0E0808183608C93198239C0ECE4C5
:10073000F0E011821082EAE4F0E011821082EFE42E
:10074000F0E01082EEE4F0E01082A9E5B0E0E9E527
:10075000F0E080818B7E8C93A8E5B0E0E8E5F0E0E6
:1007600080818C618C9319821BC0E4E4F0E01082DC
:10077000E5E4F0E01082E3E4F0E01082A9E5B0E007
:10078000E9E5F0E080818F738C93A8E5B0E0E8E5BF
:10079000F0E08081806C8C93198202C081E08983B3
:1007A00089810F900F900F900F90CF91DF91089556
:1007B000DF93CF93CDB7DEB727970FB6F894DEBFA0
:1007C0000FBECDBF8A836B8381E089838B818130AB
:1007D000D1F58A81282F30E03F832E838E819F813F
:1007E00081309105D9F02E813F81223031052CF4E2
:1007F0008E819F81009761F023C02E813F8122303E
:10080000310591F08E819F818330910599F018C058
:10081000EAE3F0E08FEF8083198250C0E7E3F0E075
:100820008FEF808319824AC0E4E3F0E08FEF80838A
:10083000198244C0E1E3F0E08FEF808319823EC06B
:1008400081E089833BC08B818823B1F58A81282F81
:1008500030E03D832C838C819D8181309105D1F0E6
:100860002C813D81223031052CF48C819D810097B3
:1008700061F01FC02C813D812230310581F08C81D7
:100880009D818330910581F014C0EAE3F0E010828D
:10089000198214C0E7E3F0E0108219820FC0E4E38C
:1008A000F0E0108219820AC0E1E3F0E010821982C0
:1008B00005C081E0898302C084E08983898127960D
:1008C0000FB6F894DEBF0FBECDBFCF91DF91089574
:1008D000DF93CF93CDB7DEB728970FB6F894DEBF7E
:1008E0000FBECDBF8A836B834C8381E089838B816C
:1008F000883008F0FDC08C81813009F077C08A8192
:10090000282F30E038872F838F819885813091059B
:1009100059F12F813885223031052CF48F8198854B
:10092000009769F060C02F8138852230310589F148
:100930008F8198858330910509F440C054C0AAE3A3
:10094000B0E0EAE3F0E08081482F8B81282F30E08F
:1009500081E090E0022E02C0880F991F0A94E2F70E
:10096000842B8C931982C6C0A7E3B0E0E7E3F0E0E4
:100970008081482F8B81282F30E081E090E0022E8B
:1009800002C0880F991F0A94E2F7842B8C93198276
:10099000B1C0A4E3B0E0E4E3F0E08081482F8B81B4
:1009A000282F30E081E090E0022E02C0880F991FCE
:1009B0000A94E2F7842B8C9319829CC0A1E3B0E0E7
:1009C000E1E3F0E08081482F8B81282F30E081E047
:1009D00090E0022E02C0880F991F0A94E2F7842B40
:1009E0008C93198287C081E0898384C08C8188239D
:1009F00009F07BC08A81282F30E03E832D838D81D2
:100A00009E818130910561F12D813E812230310539
:100A10002CF48D819E81009769F064C02D813E8108
:100A20002230310599F18D819E818330910509F441
:100A300043C058C0AAE3B0E0EAE3F0E08081482F69
:100A40008B81282F30E081E090E0022E02C0880FD9
:100A5000991F0A94E2F7809584238C9319824AC0E7
:100A6000A7E3B0E0E7E3F0E08081482F8B81282FF7
:100A700030E081E090E0022E02C0880F991F0A94B6
:100A8000E2F7809584238C93198234C0A4E3B0E00C
:100A9000E4E3F0E08081482F8B81282F30E081E073
:100AA00090E0022E02C0880F991F0A94E2F7809509
:100AB00084238C9319821EC0A1E3B0E0E1E3F0E04F
:100AC0008081482F8B81282F30E081E090E0022E3A
:100AD00002C0880F991F0A94E2F7809584238C93B3
:100AE000198208C081E0898305C084E0898302C03F
:100AF00082E08983898128960FB6F894DEBF0FBE05
:100B0000CDBFCF91DF910895DF93CF9300D000D078
:100B10000F92CDB7DEB78A836B8381E089838A81A8
:100B2000282F30E03D832C838C819D81813091057D
:100B3000D9F02C813D81223031052CF48C819D81AE
:100B4000009761F023C02C813D812230310591F066
:100B50008C819D818330910599F018C0EBE3F0E022
:100B60008B818083198214C0E8E3F0E08B8180835D
:100B700019820EC0E5E3F0E08B818083198208C002
:100B8000E2E3F0E08B818083198202C081E08983F7
:100B900089810F900F900F900F900F90CF91DF9160
:100BA0000895DF93CF93CDB7DEB728970FB6F894AB
:100BB000DEBF0FBECDBF8A836B834C8381E0898308
:100BC0008B81883008F0FDC08C81813009F077C0BE
:100BD0008A81282F30E038872F838F819885813054
:100BE000910559F12F813885223031052CF48F8100
:100BF0009885009769F060C02F81388522303105D3
:100C000089F18F8198858330910509F440C054C0E3
:100C1000ABE3B0E0EBE3F0E08081482F8B81282F3D
:100C200030E081E090E0022E02C0880F991F0A9404
:100C3000E2F7842B8C931982C6C0A8E3B0E0E8E306
:100C4000F0E08081482F8B81282F30E081E090E018
:100C5000022E02C0880F991F0A94E2F7842B8C930E
:100C60001982B1C0A5E3B0E0E5E3F0E08081482F50
:100C70008B81282F30E081E090E0022E02C0880FA7
:100C8000991F0A94E2F7842B8C9319829CC0A2E3EB
:100C9000B0E0E2E3F0E08081482F8B81282F30E044
:100CA00081E090E0022E02C0880F991F0A94E2F7BB
:100CB000842B8C93198287C081E0898384C08C81C6
:100CC000882309F07BC08A81282F30E03E832D8362
:100CD0008D819E818130910561F12D813E8122308F
:100CE00031052CF48D819E81009769F064C02D81BF
:100CF0003E812230310599F18D819E8183309105AD
:100D000009F443C058C0ABE3B0E0EBE3F0E080810E
:100D1000482F8B81282F30E081E090E0022E02C026
:100D2000880F991F0A94E2F7809584238C93198287
:100D30004AC0A8E3B0E0E8E3F0E08081482F8B816F
:100D4000282F30E081E090E0022E02C0880F991F2A
:100D50000A94E2F7809584238C93198234C0A5E32A
:100D6000B0E0E5E3F0E08081482F8B81282F30E070
:100D700081E090E0022E02C0880F991F0A94E2F7EA
:100D8000809584238C9319821EC0A2E3B0E0E2E335
:100D9000F0E08081482F8B81282F30E081E090E0C7
:100DA000022E02C0880F991F0A94E2F780958423CF
:100DB0008C93198208C081E0898305C084E089830F
:100DC00002C082E08983898128960FB6F894DEBF3D
:100DD0000FBECDBFCF91DF910895DF93CF9300D0A9
:100DE00000D000D0CDB7DEB78A837C836B8381E0EF
:100DF00089838B819C81009719F485E0898341C0A8
:100E00008A81282F30E03E832D838D819E81813021
:100E10009105E9F02D813E81223031052CF48D8140
:100E20009E81009761F02BC02D813E8122303105DB
:100E3000B1F08D819E8183309105C9F020C0E9E336
:100E4000F0E08081EB81FC81808319821AC0E6E3A7
:100E5000F0E08081EB81FC818083198212C0E3E3A2
:100E6000F0E08081EB81FC81808319820AC0E0E39D
:100E7000F0E08081EB81FC818083198202C081E0F7
:100E80008983898126960FB6F894DEBF0FBECDBF49
:100E9000CF91DF910895DF93CF93CDB7DEB727973A
:100EA0000FB6F894DEBF0FBECDBF8A836B835D8320
:100EB0004C8381E089838C819D81009719F485E0C2
:100EC0008983AFC08B81883008F0A9C08A81282F20
:100ED00030E03F832E834E815F8141305105C9F15F
:100EE0008E819F818230910534F42E813F812115BE
:100EF000310571F091C04E815F814230510509F496
:100F000049C08E819F818330910509F464C084C0FB
:100F1000E9E3F0E08081482F50E08B81282F30E01A
:100F200081E090E002C0880F991F2A95E2F79A01AC
:100F3000282339238B81882F90E0A90102C0559581
:100F400047958A95E2F7CA01EC81FD818083198279
:100F500068C0E6E3F0E08081482F50E08B81282FC5
:100F600030E081E090E002C0880F991F2A95E2F7F7
:100F70009A01282339238B81882F90E0A90102C090
:100F8000559547958A95E2F7CA01EC81FD818083EA
:100F9000198247C0E3E3F0E08081482F50E08B8165
:100FA000282F30E081E090E002C0880F991F2A9539
:100FB000E2F79A01282339238B81882F90E0A90139
:100FC00002C0559547958A95E2F7CA01EC81FD81EB
:100FD0008083198226C0E0E3F0E08081482F50E052
:100FE0008B81282F30E081E090E002C0880F991FAC
:100FF0002A95E2F79A01282339238B81882F90E0E4
:10100000A90102C0559547958A95E2F7CA01EC817E
:10101000FD818083198205C081E0898302C082E05E
:101020008983898127960FB6F894DEBF0FBECDBFA6
:10103000CF91DF910895DF93CF9300D000D00F922E
:10104000CDB7DEB78A836B8381E089838B8188305B
:1010500008F077C08A81282F30E03D832C838C8173
:101060009D818130910559F12C813D8122303105DE
:101070002CF48C819D81009769F060C02C813D81AA
:101080002230310589F18C819D818330910509F4ED
:1010900040C054C0ABE3B0E0EBE3F0E08081482F08
:1010A0008B81282F30E081E090E0022E02C0880F73
:1010B000991F0A94E2F784278C93198244C0A8E30D
:1010C000B0E0E8E3F0E08081482F8B81282F30E00A
:1010D00081E090E0022E02C0880F991F0A94E2F787
:1010E00084278C9319822FC0A5E3B0E0E5E3F0E0FC
:1010F0008081482F8B81282F30E081E090E0022E04
:1011000002C0880F991F0A94E2F784278C931982F2
:101110001AC0A2E3B0E0E2E3F0E08081482F8B81C7
:10112000282F30E081E090E0022E02C0880F991F46
:101130000A94E2F784278C93198205C081E08983A1
:1011400002C082E0898389810F900F900F900F90E9
:101150000F90CF91DF910895DF93CF93CDB7DEB796
:1011600081E080938E0080E00E942003CF91DF9188
:101170000895DF93CF9300D00F92CDB7DEB781E013
:10118000898380918F00282F30E03B832A838A81D6
:101190009B818230910509F44BC02A813B81233029
:1011A000310554F48A819B81009799F02A813B8113
:1011B0002130310581F159C08A819B8183309105AD
:1011C00009F443C02A813B812430310509F44AC027
:1011D0004CC08BE790E00E947B018CEA98E060E0D5
:1011E0000E948C0280E061E00E94D80381E060E010
:1011F00041E00E94680481E061E041E00E946804EF
:1012000081E062E041E00E94680481E080938F0009
:1012100081E089832AC088E30E943C09898389810F
:10122000882319F482E080938F0081E089831DC0B8
:101230008CE00E943C0989838981882319F483E02A
:1012400080938F0081E0898310C081E00E943C0977
:1012500089838981882319F484E080938F0081E059
:10126000898303C010928F00198289810F900F909B
:101270000F90CF91DF910895DF93CF9300D000D0EE
:10128000CDB7DEB78A8381E0898380919000282FD3
:1012900030E03C832B838B819C818230910509F463
:1012A00041C02B813C812330310554F48B819C81DA
:1012B000009799F02B813C812130310501F160C00C
:1012C0008B819C818330910509F43EC02B813C8148
:1012D0002430310509F44BC053C081E060E040E0A8
:1012E0000E94D10581E061E040E00E94D10580E0EC
:1012F00065E00E94D30281E08093900041C080911C
:101300008E008130E9F581E062E041E00E94D10584
:1013100010928E0080E065E00E94D30282E080930C
:1013200090002EC080918E00813051F5EBE3F0E00B
:101330008A81808310928E0080E065E00E94D30253
:1013400083E0809390001CC080918E008130C1F4B6
:1013500081E062E040E00E94D10510928E0080E0C2
:1013600065E00E94D30284E08093900009C08091E0
:101370008E00813029F410928E0010929000198214
:1013800089810F900F900F900F90CF91DF9108956A
:10139000DF93CF9300D000D0CDB7DEB78A8381E052
:1013A000898380919100282F30E03C832B838B81AF
:1013B0009C818230910509F443C02B813C8123300C
:1013C000310554F48B819C81009799F02B813C81ED
:1013D0002130310511F162C08B819C8183309105F0
:1013E00009F440C02B813C812430310509F44DC003
:1013F00055C081E060E041E00E94D10581E061E0FC
:1014000040E00E94D10510928E0080E065E00E94CD
:10141000D30281E08093910041C080918E008130A1
:10142000E9F581E062E041E00E94D10510928E0072
:1014300080E065E00E94D30282E0809391002EC09C
:1014400080918E00813051F5EBE3F0E08A8180835A
:1014500010928E0080E065E00E94D30283E08093CA
:1014600091001CC080918E008130C1F481E062E067
:1014700040E00E94D10510928E0080E065E00E945D
:10148000D30284E08093910009C080918E00813066
:1014900029F410928E0010929100198289810F9088
:1014A0000F900F900F90CF91DF910895DF93CF931E
:1014B00000D00F92CDB7DEB79B838A83198210C00C
:1014C0008981282F30E08A819B81FC01E20FF31F84
:1014D00080810E94C809882319F489818F5F8983DC
:1014E0008981282F30E08A819B81FC01E20FF31F64
:1014F0008081882329F70F900F900F90CF91DF9173
:101500000895DF93CF93CDB7DEB727970FB6F89442
:10151000DEBF0FBECDBF8C836D8381E090E09A83E8
:1015200089838C81282F30E03F832E838E819F8199
:1015300081309105C1F02E813F81223031052CF49C
:101540008E819F81009761F019C02E813F812230EA
:10155000310569F08E819F818330910561F00EC065
:101560008D818B830BC08D81805C8B8307C08D81C7
:10157000805F8B8303C08D81805B8B838B818068D0
:101580000E943C09882F90E09A83898389819A81FF
:10159000009711F41A821982898127960FB6F89460
:1015A000DEBF0FBECDBFCF91DF910895DF93CF9304
:1015B00000D000D000D0CDB7DEB78B836C835E83C4
:1015C0004D8381E090E09A8389838B816C810E94B6
:1015D000810A882F90E09A83898389819A81009774
:1015E00031F48D819E810E94560A1A821982898166
:1015F00026960FB6F894DEBF0FBECDBFCF91DF9118
:101600000895DF93CF93CDB7DEB764970FB6F89404
:10161000DEBF0FBECDBF698B7A8B8B8B9C8B89898C
:101620009A899E012F5F3F4FB9014AE050E00E9426
:101630007C0BCE0101960E94560A64960FB6F89470
:10164000DEBF0FBECDBFCF91DF910895DF93CF9363
:101650000F92CDB7DEB781E0898381E00E943C091B
:1016600089838981882309F4198289810F90CF9118
:10167000DF910895DF93CF93CDB7DEB77894CF9104
:10168000DF910895DF93CF93CDB7DEB780918100CE
:10169000813079F40E94B9088093820080918200A1
:1016A0008823F1F41092810080E690E00E94560AAF
:1016B00017C080918100882399F480918300813044
:1016C00079F421E730E081E063E0A9010E94D60AC5
:1016D0008093840080918400882311F41092830009
:1016E000CF91DF910895DF93CF93CDB7DEB70E94FE
:1016F0003A0B0E94420BFDCFFB019F01E894423060
:10170000C4F04532B4F44A3029F497FB1EF49095A6
:1017100081959F4F642F77270E94AD0B805D8A33A0
:101720000CF0895D8193CB010097A1F716F45DE27F
:1017300051931082C9010C949D0BDC01FC01672FB1
:1017400071917723E1F7329704C07C916D93708398
:101750006291AE17BF07C8F30895AA1BBB1B51E1E6
:1017600007C0AA1FBB1FA617B70710F0A61BB70B11
:10177000881F991F5A95A9F780959095BC01CD01B6
:061780000895F894FFCF6C
:101786004C4344204E4F4E2D424C4F434B494E47FF
:10179600003132333435363738390000000800005E
:0817A600010101010101010034
:00000001FF
