:100000000C942A000C9447000C9447000C94470071
:100010000C941C060C94E9050C9447000C94B6054E
:100020000C9447000C9483050C9450050C941D050A
:100030000C9447000C9447000C9447000C94470024
:100040000C9447000C9447000C9447000C94470014
:100050000C94470011241FBECFE5D8E0DEBFCDBF12
:1000600010E0A0E6B0E0EEE8F2E102C005900D92EB
:10007000A636B107D9F710E0A6E6B0E001C01D92A0
:10008000AD36B107E1F70E943E090C9445090C9486
:100090000000DF93CF93CDB7DEB727970FB6F89464
:1000A000DEBF0FBECDBF8A836B8381E089838B81E6
:1000B0008130D1F58A81282F30E03F832E838E81D5
:1000C0009F8181309105D9F02E813F812230310509
:1000D0002CF48E819F81009761F023C02E813F8197
:1000E0002230310591F08E819F818330910599F006
:1000F00018C0EAE3F0E08FEF8083198250C0E7E395
:10010000F0E08FEF808319824AC0E4E3F0E08FEFE4
:100110008083198244C0E1E3F0E08FEF808319828D
:100120003EC081E089833BC08B818823B1F58A8101
:10013000282F30E03D832C838C819D818130910577
:10014000D1F02C813D81223031052CF48C819D81B0
:10015000009761F01FC02C813D812230310581F074
:100160008C819D818330910581F014C0EAE3F0E039
:100170001082198214C0E7E3F0E0108219820FC0E8
:10018000E4E3F0E0108219820AC0E1E3F0E01082BB
:10019000198205C081E0898302C084E08983898156
:1001A00027960FB6F894DEBF0FBECDBFCF91DF917B
:1001B0000895DF93CF93CDB7DEB728970FB6F894A5
:1001C000DEBF0FBECDBF8A836B834C8381E0898302
:1001D0008B81883008F0FDC08C81813009F077C0B8
:1001E0008A81282F30E038872F838F81988581304E
:1001F000910559F12F813885223031052CF48F81FA
:100200009885009769F060C02F81388522303105CC
:1002100089F18F8198858330910509F440C054C0DD
:10022000AAE3B0E0EAE3F0E08081482F8B81282F39
:1002300030E081E090E0022E02C0880F991F0A94FE
:10024000E2F7842B8C931982C6C0A7E3B0E0E7E302
:10025000F0E08081482F8B81282F30E081E090E012
:10026000022E02C0880F991F0A94E2F7842B8C9308
:100270001982B1C0A4E3B0E0E4E3F0E08081482F4C
:100280008B81282F30E081E090E0022E02C0880FA1
:10029000991F0A94E2F7842B8C9319829CC0A1E3E6
:1002A000B0E0E1E3F0E08081482F8B81282F30E03F
:1002B00081E090E0022E02C0880F991F0A94E2F7B5
:1002C000842B8C93198287C081E0898384C08C81C0
:1002D000882309F07BC08A81282F30E03E832D835C
:1002E0008D819E818130910561F12D813E81223089
:1002F00031052CF48D819E81009769F064C02D81B9
:100300003E812230310599F18D819E8183309105A6
:1003100009F443C058C0AAE3B0E0EAE3F0E080810A
:10032000482F8B81282F30E081E090E0022E02C020
:10033000880F991F0A94E2F7809584238C93198281
:100340004AC0A7E3B0E0E7E3F0E08081482F8B816B
:10035000282F30E081E090E0022E02C0880F991F24
:100360000A94E2F7809584238C93198234C0A4E325
:10037000B0E0E4E3F0E08081482F8B81282F30E06B
:1003800081E090E0022E02C0880F991F0A94E2F7E4
:10039000809584238C9319821EC0A1E3B0E0E1E331
:1003A000F0E08081482F8B81282F30E081E090E0C1
:1003B000022E02C0880F991F0A94E2F780958423C9
:1003C0008C93198208C081E0898305C084E0898309
:1003D00002C082E08983898128960FB6F894DEBF37
:1003E0000FBECDBFCF91DF910895DF93CF9300D0A3
:1003F00000D00F92CDB7DEB78A836B8381E089830B
:100400008A81282F30E03D832C838C819D8181302F
:100410009105D9F02C813D81223031052CF48C815D
:100420009D81009761F023C02C813D8122303105F0
:1004300091F08C819D818330910599F018C0EBE398
:10044000F0E08B818083198214C0E8E3F0E08B81B7
:10045000808319820EC0E5E3F0E08B8180831982EE
:1004600008C0E2E3F0E08B818083198202C081E062
:10047000898389810F900F900F900F900F90CF91EB
:10048000DF910895DF93CF93CDB7DEB728970FB6EE
:10049000F894DEBF0FBECDBF8A836B834C8381E0AF
:1004A00089838B81883008F0FDC08C81813009F010
:1004B00077C08A81282F30E038872F838F819885F5
:1004C0008130910559F12F813885223031052CF486
:1004D0008F819885009769F060C02F813885223020
:1004E000310589F18F8198858330910509F440C0E9
:1004F00054C0ABE3B0E0EBE3F0E08081482F8B81A8
:10050000282F30E081E090E0022E02C0880F991F72
:100510000A94E2F7842B8C931982C6C0A8E3B0E05A
:10052000E8E3F0E08081482F8B81282F30E081E0E4
:1005300090E0022E02C0880F991F0A94E2F7842BE4
:100540008C931982B1C0A5E3B0E0E5E3F0E08081CF
:10055000482F8B81282F30E081E090E0022E02C0EE
:10056000880F991F0A94E2F7842B8C9319829CC000
:10057000A2E3B0E0E2E3F0E08081482F8B81282FF6
:1005800030E081E090E0022E02C0880F991F0A94AB
:10059000E2F7842B8C93198287C081E0898384C021
:1005A0008C81882309F07BC08A81282F30E03E832C
:1005B0002D838D819E818130910561F12D813E8158
:1005C000223031052CF48D819E81009769F064C042
:1005D0002D813E812230310599F18D819E818330BC
:1005E000910509F443C058C0ABE3B0E0EBE3F0E0A1
:1005F0008081482F8B81282F30E081E090E0022E0F
:1006000002C0880F991F0A94E2F7809584238C9387
:1006100019824AC0A8E3B0E0E8E3F0E08081482F07
:100620008B81282F30E081E090E0022E02C0880FFD
:10063000991F0A94E2F7809584238C93198234C021
:10064000A5E3B0E0E5E3F0E08081482F8B81282F1F
:1006500030E081E090E0022E02C0880F991F0A94DA
:10066000E2F7809584238C9319821EC0A2E3B0E048
:10067000E2E3F0E08081482F8B81282F30E081E099
:1006800090E0022E02C0880F991F0A94E2F780952D
:1006900084238C93198208C081E0898305C084E09B
:1006A000898302C082E08983898128960FB6F894F5
:1006B000DEBF0FBECDBFCF91DF910895DF93CF9303
:1006C00000D000D000D0CDB7DEB78A837C836B83A7
:1006D00081E089838B819C81009719F485E089836F
:1006E00041C08A81282F30E03E832D838D819E81F9
:1006F00081309105E9F02D813E81223031052CF4C5
:100700008D819E81009761F02BC02D813E8122302A
:100710003105B1F08D819E8183309105C9F020C0F3
:10072000E9E3F0E08081EB81FC81808319821AC0CB
:10073000E6E3F0E08081EB81FC818083198212C0C6
:10074000E3E3F0E08081EB81FC81808319820AC0C1
:10075000E0E3F0E08081EB81FC818083198202C0BC
:1007600081E08983898126960FB6F894DEBF0FBE9B
:10077000CDBFCF91DF910895DF93CF93CDB7DEB793
:1007800027970FB6F894DEBF0FBECDBF8A836B8369
:100790005D834C8381E089838C819D81009719F46E
:1007A00085E08983AFC08B81883008F0A9C08A8139
:1007B000282F30E03F832E834E815F8141305105E9
:1007C000C9F18E819F818230910534F42E813F8161
:1007D0002115310571F091C04E815F814230510584
:1007E00009F449C08E819F818330910509F464C06A
:1007F00084C0E9E3F0E08081482F50E08B81282F0E
:1008000030E081E090E002C0880F991F2A95E2F75E
:100810009A01282339238B81882F90E0A90102C0F7
:10082000559547958A95E2F7CA01EC81FD81808351
:10083000198268C0E6E3F0E08081482F50E08B81A8
:10084000282F30E081E090E002C0880F991F2A95A0
:10085000E2F79A01282339238B81882F90E0A901A0
:1008600002C0559547958A95E2F7CA01EC81FD8152
:100870008083198247C0E3E3F0E08081482F50E095
:100880008B81282F30E081E090E002C0880F991F13
:100890002A95E2F79A01282339238B81882F90E04B
:1008A000A90102C0559547958A95E2F7CA01EC81E6
:1008B000FD818083198226C0E0E3F0E08081482F2B
:1008C00050E08B81282F30E081E090E002C0880F5B
:1008D000991F2A95E2F79A01282339238B81882FC3
:1008E00090E0A90102C0559547958A95E2F7CA01A3
:1008F000EC81FD818083198205C081E0898302C07B
:1009000082E08983898127960FB6F894DEBF0FBEF7
:10091000CDBFCF91DF910895DF93CF9300D000D06A
:100920000F92CDB7DEB78A836B8381E089838B8199
:10093000883008F077C08A81282F30E03D832C83EF
:100940008C819D818130910559F12C813D8122302E
:1009500031052CF48C819D81009769F060C02C8159
:100960003D812230310589F18C819D818330910553
:1009700009F440C054C0ABE3B0E0EBE3F0E08081A9
:10098000482F8B81282F30E081E090E0022E02C0BA
:10099000880F991F0A94E2F784278C93198244C028
:1009A000A8E3B0E0E8E3F0E08081482F8B81282FB6
:1009B00030E081E090E0022E02C0880F991F0A9477
:1009C000E2F784278C9319822FC0A5E3B0E0E5E31A
:1009D000F0E08081482F8B81282F30E081E090E08B
:1009E000022E02C0880F991F0A94E2F784278C9385
:1009F00019821AC0A2E3B0E0E2E3F0E08081482F60
:100A00008B81282F30E081E090E0022E02C0880F19
:100A1000991F0A94E2F784278C93198205C081E01C
:100A2000898302C082E0898389810F900F900F90A3
:100A30000F900F90CF91DF9108951F920F920FB6F4
:100A40000F9211242F933F934F935F936F937F9354
:100A50008F939F93AF93BF93EF93FF93DF93CF93C6
:100A6000CDB7DEB78091660090916700009729F0BE
:100A7000E0916600F09167000995CF91DF91FF91B9
:100A8000EF91BF91AF919F918F917F916F915F9106
:100A90004F913F912F910F900FBE0F901F9018957F
:100AA0001F920F920FB60F9211242F933F934F93E3
:100AB0005F936F937F938F939F93AF93BF93EF93C6
:100AC000FF93DF93CF93CDB7DEB78091660090910F
:100AD0006700009729F0E0916600F09167000995A2
:100AE000CF91DF91FF91EF91BF91AF919F918F9146
:100AF0007F916F915F914F913F912F910F900FBE1A
:100B00000F901F9018951F920F920FB60F921124FD
:100B10002F933F934F935F936F937F938F939F9305
:100B2000AF93BF93EF93FF93DF93CF93CDB7DEB730
:100B30008091680090916900009729F0E091680029
:100B4000F09169000995CF91DF91FF91EF91BF91ED
:100B5000AF919F918F917F916F915F914F913F9155
:100B60002F910F900FBE0F901F9018951F920F920C
:100B70000FB60F9211242F933F934F935F936F9370
:100B80007F938F939F93AF93BF93EF93FF93DF93E5
:100B9000CF93CDB7DEB78091680090916900009740
:100BA00029F0E0916800F09169000995CF91DF91FB
:100BB000FF91EF91BF91AF919F918F917F916F9135
:100BC0005F914F913F912F910F900FBE0F901F900B
:100BD00018951F920F920FB60F9211242F933F93E7
:100BE0004F935F936F937F938F939F93AF93BF9335
:100BF000EF93FF93DF93CF93CDB7DEB780916A0079
:100C000090916B00009729F0E0916A00F0916B00E1
:100C10000995CF91DF91FF91EF91BF91AF919F9196
:100C20008F917F916F915F914F913F912F910F9095
:100C30000FBE0F901F9018951F920F920FB60F9234
:100C400011242F933F934F935F936F937F938F93D1
:100C50009F93AF93BF93EF93FF93DF93CF93CDB762
:100C6000DEB780916A0090916B00009729F0E091C7
:100C70006A00F0916B000995CF91DF91FF91EF91A0
:100C8000BF91AF919F918F917F916F915F914F91A4
:100C90003F912F910F900FBE0F901F901895DF93EB
:100CA000CF93CDB7DEB72B970FB6F894DEBF0FBE4C
:100CB000CDBF9B838A8381E08983EA81FB81848124
:100CC000282F30E03B872A878A859B8581309105D4
:100CD00009F450C02A853B852230310509F49FC0B4
:100CE0008A859B85009709F0DFC0E2E5F0E010827D
:100CF000E3E5F0E01082ECE5F0E01082A2E5B0E080
:100D0000EA81FB81808191818C93EA81FB818581DD
:100D1000282F30E03987288788859985009731F01A
:100D2000288539852130310571F021C0E3E5F0E0F7
:100D300080E88083A9E5B0E0E9E5F0E080818160AA
:100D40008C931982B3C0ACE5B0E0EA81FB8182816B
:100D500093818C93E3E5F0E088E88083A9E5B0E037
:100D6000E9E5F0E0808182608C9319829FC082E087
:100D700089839CC0ECE4F0E011821082EAE4F0E0A8
:100D800011821082EFE4F0E01082EEE4F0E01082D5
:100D9000ACE4B0E0EA81FB818081918111969C9363
:100DA0008E93EA81FB818581282F30E03F832E835B
:100DB0008E819F81009731F02E813F812130310556
:100DC00071F02AC0EFE4F0E08CE08083A9E5B0E0A8
:100DD000E9E5F0E0808184608C93198267C0AAE421
:100DE000B0E0EA81FB818281938111969C938E937E
:100DF000EFE4F0E08CE08083AEE4B0E0EEE4F0E01D
:100E0000808188608C93A9E5B0E0E9E5F0E080811D
:100E100080618C9319824AC082E0898347C0E4E4F0
:100E2000F0E01082E5E4F0E01082E3E4F0E010820C
:100E3000A4E4B0E0EA81FB81808191818C93EA8116
:100E4000FB818581282F30E03D832C838C819D811F
:100E5000009731F02C813D812130310571F021C0A6
:100E6000E5E4F0E080E88083A9E5B0E0E9E5F0E0C2
:100E7000808180648C93198219C0A3E4B0E0EA8178
:100E8000FB81828193818C93E5E4F0E088E88083A4
:100E9000A9E5B0E0E9E5F0E0808180688C931982F3
:100EA00005C082E0898302C081E0898389812B9615
:100EB0000FB6F894DEBF0FBECDBFCF91DF9108957E
:100EC000DF93CF9300D000D000D0CDB7DEB79B83A7
:100ED0008A836C8381E089838A819B81009719F4DE
:100EE00083E089832AC08C81282F30E03E832D83C4
:100EF0008D819E818130910589F02D813E81223046
:100F00003105A1F08D819E810097B9F48A819B8182
:100F1000909367008093660019820FC08A819B813D
:100F20009093690080936800198207C08A819B8131
:100F300090936B0080936A001982898126960FB680
:100F4000F894DEBF0FBECDBFCF91DF910895DF9340
:100F5000CF9300D000D00F92CDB7DEB78A836B83DA
:100F600081E089838A81282F30E03D832C838C8126
:100F70009D8181309105A9F02C813D812230310580
:100F8000E1F08C819D81009721F5A3E5B0E0E3E5D8
:100F9000F0E08081982F987F8B81892B8C93198228
:100FA0001AC0AEE4B0E0EEE4F0E08081982F987FC4
:100FB0008B81892B8C9319820EC0A5E4B0E0E5E407
:100FC000F0E08081982F987F8B81892B8C931982F8
:100FD00002C081E0898389810F900F900F900F905C
:100FE0000F90CF91DF910895DF93CF9300D000D081
:100FF000CDB7DEB78A8381E089838A81282F30E0EC
:101000003C832B838B819C818130910591F02B81D6
:101010003C8122303105B1F08B819C810097D9F45D
:10102000A3E5B0E0E3E5F0E08081887F8C9319824E
:1010300014C0AEE4B0E0EEE4F0E08081887F8C93F1
:1010400019820BC0A5E4B0E0E5E4F0E08081887F80
:101050008C93198202C081E0898389810F900F905F
:101060000F900F90CF91DF910895DF93CF9300D031
:1010700000D0CDB7DEB78A8381E089838A81282FAB
:1010800030E03C832B838B819C818130910519F169
:101090002B813C8122303105E1F18B819C810097CD
:1010A00009F050C0E2E5F0E01082E3E5F0E01082E4
:1010B000ECE5F0E01082A9E5B0E0E9E5F0E0808140
:1010C0008C7F8C93A8E5B0E0E8E5F0E08081836058
:1010D0008C93198239C0ECE4F0E011821082EAE4CA
:1010E000F0E011821082EFE4F0E01082EEE4F0E034
:1010F0001082A9E5B0E0E9E5F0E080818B7E8C9379
:10110000A8E5B0E0E8E5F0E080818C618C9319827D
:101110001BC0E4E4F0E01082E5E4F0E01082E3E4D8
:10112000F0E01082A9E5B0E0E9E5F0E080818F739E
:101130008C93A8E5B0E0E8E5F0E08081806C8C93CA
:10114000198202C081E0898389810F900F900F90EE
:101150000F90CF91DF910895DF93CF93CDB7DEB796
:1011600081E064E041E00E94D90081E064E041E078
:101170000E944202CF91DF910895DF93CF93CDB7C4
:10118000DEB781E064E041E00E944202CF91DF914E
:101190000895DF93CF93CDB7DEB781E064E040E000
:1011A0000E944202CF91DF910895DF93CF93CDB794
:1011B000DEB781E064E00E948C04CF91DF91089556
:1011C000DF93CF93CDB7DEB780916C008F5F8093B4
:1011D0006C0080916C00833019F40E94D50808C01F
:1011E00080916C00883021F40E94D50810926C0028
:1011F000CF91DF910895DF93CF93CDB7DEB72B97D3
:101200000FB6F894DEBF0FBECDBF78940E94AC0835
:10121000CE01019698878F83E0E6F0E0FA87E987B0
:10122000F6E0FB87E985FA85008089859A85019635
:101230009A878987EF81F88500828F81988501964A
:1012400098878F839B8591509B87EB85EE2351F781
:10125000CE0101960E944F0680EE98E061E00E9468
:10126000600781E065E00E94A7072B960FB6F8940F
:10127000DEBF0FBECDBFCF91DF910895DF93CF9337
:0E128000CDB7DEB70E94FB08FFCFF894FFCF7A
:06128E0000000D03010148
:00000001FF
