:100000000C942A000C943C000C943C000C943C0092
:100010000C943C000C943C000C943C000C943C0070
:100020000C943C000C943C000C943C000C943C0060
:100030000C943C000C943C000C943C000C943C0050
:100040000C943C000C943C000C943C000C943C0040
:100050000C943C0011241FBECFE5D8E0DEBFCDBF1D
:1000600010E0A0E6B0E001C01D92A136B107E1F7B3
:100070000E948D050C9496050C940000DF93CF939D
:10008000CDB7DEB727970FB6F894DEBF0FBECDBF52
:100090008A836B8381E089838B818130D1F58A816A
:1000A000282F30E03F832E838E819F818130910500
:1000B000D9F02E813F81223031052CF48E819F8131
:1000C000009761F023C02E813F812230310591F0ED
:1000D0008E819F818330910599F018C0EAE3F0E0AA
:1000E0008FEF8083198250C0E7E3F0E08FEF8083C9
:1000F00019824AC0E4E3F0E08FEF8083198244C0A4
:10010000E1E3F0E08FEF808319823EC081E08983D4
:100110003BC08B818823B1F58A81282F30E03D8355
:100120002C838C819D8181309105D1F02C813D8182
:10013000223031052CF48C819D81009761F01FC025
:100140002C813D812230310581F08C819D8183306D
:10015000910581F014C0EAE3F0E01082198214C026
:10016000E7E3F0E0108219820FC0E4E3F0E01082D0
:1001700019820AC0E1E3F0E01082198205C081E033
:10018000898302C084E08983898127960FB6F89419
:10019000DEBF0FBECDBFCF91DF910895DF93CF9328
:1001A000CDB7DEB728970FB6F894DEBF0FBECDBF30
:1001B0008A836B834C8381E089838B81883008F04C
:1001C000FDC08C81813009F077C08A81282F30E012
:1001D00038872F838F8198858130910559F12F8140
:1001E0003885223031052CF48F819885009769F08D
:1001F00060C02F8138852230310589F18F81988543
:100200008330910509F440C054C0AAE3B0E0EAE3AA
:10021000F0E08081482F8B81282F30E081E090E052
:10022000022E02C0880F991F0A94E2F7842B8C9348
:100230001982C6C0A7E3B0E0E7E3F0E08081482F71
:100240008B81282F30E081E090E0022E02C0880FE1
:10025000991F0A94E2F7842B8C931982B1C0A4E30E
:10026000B0E0E4E3F0E08081482F8B81282F30E07C
:1002700081E090E0022E02C0880F991F0A94E2F7F5
:10028000842B8C9319829CC0A1E3B0E0E1E3F0E001
:100290008081482F8B81282F30E081E090E0022E72
:1002A00002C0880F991F0A94E2F7842B8C9319825D
:1002B00087C081E0898384C08C81882309F07BC05A
:1002C0008A81282F30E03E832D838D819E8181306D
:1002D000910561F12D813E81223031052CF48D8113
:1002E0009E81009769F064C02D813E8122303105E6
:1002F00099F18D819E818330910509F443C058C0E6
:10030000AAE3B0E0EAE3F0E08081482F8B81282F58
:1003100030E081E090E0022E02C0880F991F0A941D
:10032000E2F7809584238C9319824AC0A7E3B0E05A
:10033000E7E3F0E08081482F8B81282F30E081E0D7
:1003400090E0022E02C0880F991F0A94E2F7809570
:1003500084238C93198234C0A4E3B0E0E4E3F0E09A
:100360008081482F8B81282F30E081E090E0022EA1
:1003700002C0880F991F0A94E2F7809584238C931A
:1003800019821EC0A1E3B0E0E1E3F0E08081482FD4
:100390008B81282F30E081E090E0022E02C0880F90
:1003A000991F0A94E2F7809584238C93198208C0E0
:1003B00081E0898305C084E0898302C082E089836B
:1003C000898128960FB6F894DEBF0FBECDBFCF91BE
:1003D000DF910895DF93CF9300D000D00F92CDB777
:1003E000DEB78A836B8381E089838A81282F30E09E
:1003F0003D832C838C819D8181309105D9F02C81A6
:100400003D81223031052CF48C819D81009761F073
:1004100023C02C813D812230310591F08C819D815A
:100420008330910599F018C0EBE3F0E08B81808375
:10043000198214C0E8E3F0E08B81808319820EC03A
:10044000E5E3F0E08B818083198208C0E2E3F0E00D
:100450008B818083198202C081E0898389810F901A
:100460000F900F900F900F90CF91DF910895DF9331
:10047000CF93CDB7DEB728970FB6F894DEBF0FBE87
:10048000CDBF8A836B834C8381E089838B818830E5
:1004900008F0FDC08C81813009F077C08A81282F57
:1004A00030E038872F838F8198858130910559F10D
:1004B0002F813885223031052CF48F819885009763
:1004C00069F060C02F8138852230310589F18F8134
:1004D00098858330910509F440C054C0ABE3B0E087
:1004E000EBE3F0E08081482F8B81282F30E081E022
:1004F00090E0022E02C0880F991F0A94E2F7842B25
:100500008C931982C6C0A8E3B0E0E8E3F0E08081F4
:10051000482F8B81282F30E081E090E0022E02C02E
:10052000880F991F0A94E2F7842B8C931982B1C02B
:10053000A5E3B0E0E5E3F0E08081482F8B81282F30
:1005400030E081E090E0022E02C0880F991F0A94EB
:10055000E2F7842B8C9319829CC0A2E3B0E0E2E323
:10056000F0E08081482F8B81282F30E081E090E0FF
:10057000022E02C0880F991F0A94E2F7842B8C93F5
:10058000198287C081E0898384C08C81882309F027
:100590007BC08A81282F30E03E832D838D819E8110
:1005A0008130910561F12D813E81223031052CF49D
:1005B0008D819E81009769F064C02D813E8122303B
:1005C000310599F18D819E818330910509F443C0F5
:1005D00058C0ABE3B0E0EBE3F0E08081482F8B81C3
:1005E000282F30E081E090E0022E02C0880F991F92
:1005F0000A94E2F7809584238C9319824AC0A8E379
:10060000B0E0E8E3F0E08081482F8B81282F30E0D4
:1006100081E090E0022E02C0880F991F0A94E2F751
:10062000809584238C93198234C0A5E3B0E0E5E380
:10063000F0E08081482F8B81282F30E081E090E02E
:10064000022E02C0880F991F0A94E2F78095842336
:100650008C9319821EC0A2E3B0E0E2E3F0E0808157
:10066000482F8B81282F30E081E090E0022E02C0DD
:10067000880F991F0A94E2F7809584238C9319823E
:1006800008C081E0898305C084E0898302C082E0DC
:100690008983898128960FB6F894DEBF0FBECDBF3F
:1006A000CF91DF910895DF93CF9300D000D000D099
:1006B000CDB7DEB78A837C836B8381E089838B81AE
:1006C0009C81009719F485E0898341C08A81282F95
:1006D00030E03E832D838D819E8181309105E9F04C
:1006E0002D813E81223031052CF48D819E81009731
:1006F00061F02BC02D813E8122303105B1F08D811A
:100700009E8183309105C9F020C0E9E3F0E080814B
:10071000EB81FC81808319821AC0E6E3F0E08081DE
:10072000EB81FC818083198212C0E3E3F0E08081D9
:10073000EB81FC81808319820AC0E0E3F0E08081D4
:10074000EB81FC818083198202C081E089838981E9
:1007500026960FB6F894DEBF0FBECDBFCF91DF91C6
:100760000895DF93CF93CDB7DEB727970FB6F894F0
:10077000DEBF0FBECDBF8A836B835D834C8381E078
:1007800089838C819D81009719F485E08983AFC0AE
:100790008B81883008F0A9C08A81282F30E03F8300
:1007A0002E834E815F8141305105C9F18E819F8139
:1007B0008230910534F42E813F812115310571F08D
:1007C00091C04E815F814230510509F449C08E814C
:1007D0009F818330910509F464C084C0E9E3F0E0AF
:1007E0008081482F50E08B81282F30E081E090E01D
:1007F00002C0880F991F2A95E2F79A01282339230E
:100800008B81882F90E0A90102C0559547958A9564
:10081000E2F7CA01EC81FD818083198268C0E6E3BA
:10082000F0E08081482F50E08B81282F30E081E07C
:1008300090E002C0880F991F2A95E2F79A012823B9
:1008400039238B81882F90E0A90102C055954795E7
:100850008A95E2F7CA01EC81FD818083198247C045
:10086000E3E3F0E08081482F50E08B81282F30E0D7
:1008700081E090E002C0880F991F2A95E2F79A0163
:10088000282339238B81882F90E0A90102C0559538
:1008900047958A95E2F7CA01EC81FD818083198230
:1008A00026C0E0E3F0E08081482F50E08B81282FC4
:1008B00030E081E090E002C0880F991F2A95E2F7AE
:1008C0009A01282339238B81882F90E0A90102C047
:1008D000559547958A95E2F7CA01EC81FD818083A1
:1008E000198205C081E0898302C082E08983898101
:1008F00027960FB6F894DEBF0FBECDBFCF91DF9124
:100900000895DF93CF9300D000D00F92CDB7DEB71C
:100910008A836B8381E089838B81883008F077C07C
:100920008A81282F30E03D832C838C819D8181300A
:10093000910559F12C813D81223031052CF48C81B7
:100940009D81009769F060C02C813D812230310586
:1009500089F18C819D818330910509F440C054C098
:10096000ABE3B0E0EBE3F0E08081482F8B81282FF0
:1009700030E081E090E0022E02C0880F991F0A94B7
:10098000E2F784278C93198244C0A8E3B0E0E8E33F
:10099000F0E08081482F8B81282F30E081E090E0CB
:1009A000022E02C0880F991F0A94E2F784278C93C5
:1009B00019822FC0A5E3B0E0E5E3F0E08081482F85
:1009C0008B81282F30E081E090E0022E02C0880F5A
:1009D000991F0A94E2F784278C9319821AC0A2E324
:1009E000B0E0E2E3F0E08081482F8B81282F30E0F7
:1009F00081E090E0022E02C0880F991F0A94E2F76E
:100A000084278C93198205C081E0898302C082E02B
:100A1000898389810F900F900F900F900F90CF9145
:100A2000DF910895DF93CF93CDB7DEB782E064E026
:100A300040E00E94CE00CF91DF910895DF93CF93E5
:100A400000D0CDB7DEB782E064E09E012F5F3F4F5C
:100A5000A9010E94B1038981813019F481E08A8360
:100A600001C01A828A810F900F90CF91DF91089573
:100A7000DF93CF93CDB7DEB781E064E041E00E9421
:100A8000CE0081E064E040E00E943702CF91DF9128
:100A90000895DF93CF93CDB7DEB781E064E041E006
:100AA0000E943702CF91DF910895DF93CF93CDB7A6
:100AB000DEB781E064E040E00E943702CF91DF9131
:100AC0000895DF93CF93CDB7DEB70E9412050E9441
:100AD00038050E941E05809360008091600081307F
:100AE00019F40E94490502C00E945505CF91DF917B
:100AF0000895DF93CF93CDB7DEB70E941E05809394
:100B0000600080916000813019F40E94490502C0A4
:100B10000E945505CF91DF910895DF93CF93CDB714
:100B2000DEB70E9461050E947905FDCFF894FFCFE2
:00000001FF
